{
  "transactions": [
    {
      "hash": "0xfec64a97c658d3b836a49c8282798a525e5503ff5e10cbdc82372fa05a158413",
      "transactionType": "CALL",
      "contractName": "SimplePaymentProcessor",
      "contractAddress": "0xd4a9e5ac9f54beccd7c12ca6bd7bd026bbf0058d",
      "function": "acceptPayment(uint216)",
      "arguments": [
        "16538518749940493772757772699654761212940754371727982334963835788"
      ],
      "transaction": {
        "from": "0x0f447989b14a3f0bbf08808020ec1a6de0b8cbc4",
        "to": "0xd4a9e5ac9f54beccd7c12ca6bd7bd026bbf0058d",
        "gas": "0x1ba98",
        "value": "0x0",
        "input": "0x5679466400000000002833f20b54e70bb81e13895600fa5fcfe37d488c7041c87373638c",
        "nonce": "0x497",
        "chainId": "0xaa36a7"
      },
      "additionalContracts": [],
      "isFixedGasLimit": false
    },
    {
      "hash": "0xa95e52ec2caf7371f4b904bbe0c09d7c9c6ba4ca40d2993afdc0d79171002bce",
      "transactionType": "CALL",
      "contractName": "SimplePaymentProcessor",
      "contractAddress": "0xd4a9e5ac9f54beccd7c12ca6bd7bd026bbf0058d",
      "function": "acceptPayment(uint216)",
      "arguments": [
        "648421601523862015806655135625776044321067958933583463600841612"
      ],
      "transaction": {
        "from": "0x0f447989b14a3f0bbf08808020ec1a6de0b8cbc4",
        "to": "0xd4a9e5ac9f54beccd7c12ca6bd7bd026bbf0058d",
        "gas": "0x1a211",
        "value": "0x0",
        "input": "0x5679466400000000000193838555b671386db5fa7f82eb108ff69a017898cd272933638c",
        "nonce": "0x498",
        "chainId": "0xaa36a7"
      },
      "additionalContracts": [],
      "isFixedGasLimit": false
    },
    {
      "hash": "0x2de1bd4b3aee03207c710a42edf5c15aa4c278493ce3f0301e3b43e77dda839a",
      "transactionType": "CALL",
      "contractName": "SimplePaymentProcessor",
      "contractAddress": "0xd4a9e5ac9f54beccd7c12ca6bd7bd026bbf0058d",
      "function": "acceptPayment(uint216)",
      "arguments": [
        "46517248784344882045256372832603246930075978430931361931149057290"
      ],
      "transaction": {
        "from": "0x0f447989b14a3f0bbf08808020ec1a6de0b8cbc4",
        "to": "0xd4a9e5ac9f54beccd7c12ca6bd7bd026bbf0058d",
        "gas": "0x1a211",
        "value": "0x0",
        "input": "0x5679466400000000007113c146d26016c93ae366e651ad3acbd97276db6258f60bae1d0a",
        "nonce": "0x499",
        "chainId": "0xaa36a7"
      },
      "additionalContracts": [],
      "isFixedGasLimit": false
    },
    {
      "hash": "0x282ab8d44cdecd31f70bd3193d2ce063ad422b6d41ff1ee6db01111b5abb8a1d",
      "transactionType": "CALL",
      "contractName": "SimplePaymentProcessor",
      "contractAddress": "0xd4a9e5ac9f54beccd7c12ca6bd7bd026bbf0058d",
      "function": "acceptPayment(uint216)",
      "arguments": [
        "54501542718683816636513271539554140931279384973077410173732043661"
      ],
      "transaction": {
        "from": "0x0f447989b14a3f0bbf08808020ec1a6de0b8cbc4",
        "to": "0xd4a9e5ac9f54beccd7c12ca6bd7bd026bbf0058d",
        "gas": "0x1ba98",
        "value": "0x0",
        "input": "0x567946640000000000847c64af58105e21a38e12295a416400e9f4a90580c62ee960bb8d",
        "nonce": "0x49a",
        "chainId": "0xaa36a7"
      },
      "additionalContracts": [],
      "isFixedGasLimit": false
    },
    {
      "hash": "0x46b19d260fc70f70f3ef43cd2ae46d0223526d6065a8f8ba6eecb2562e5ad582",
      "transactionType": "CALL",
      "contractName": "SimplePaymentProcessor",
      "contractAddress": "0xd4a9e5ac9f54beccd7c12ca6bd7bd026bbf0058d",
      "function": "acceptPayment(uint216)",
      "arguments": [
        "99657075663630099701466038439915476672566115973017082009272148521"
      ],
      "transaction": {
        "from": "0x0f447989b14a3f0bbf08808020ec1a6de0b8cbc4",
        "to": "0xd4a9e5ac9f54beccd7c12ca6bd7bd026bbf0058d",
        "gas": "0x1a211",
        "value": "0x0",
        "input": "0x567946640000000000f240c01cd8e24f38b6e9d05ca6185ae699bad044f565b565ab6229",
        "nonce": "0x49b",
        "chainId": "0xaa36a7"
      },
      "additionalContracts": [],
      "isFixedGasLimit": false
    },
    {
      "hash": "0x13d65d377727e5e286d068ead48da23bd087ca922f5601873541f79e28b0fc14",
      "transactionType": "CALL",
      "contractName": "SimplePaymentProcessor",
      "contractAddress": "0xd4a9e5ac9f54beccd7c12ca6bd7bd026bbf0058d",
      "function": "acceptPayment(uint216)",
      "arguments": [
        "58398700095569861610227540771976682791225837806958423704879598394"
      ],
      "transaction": {
        "from": "0x0f447989b14a3f0bbf08808020ec1a6de0b8cbc4",
        "to": "0xd4a9e5ac9f54beccd7c12ca6bd7bd026bbf0058d",
        "gas": "0x1a211",
        "value": "0x0",
        "input": "0x5679466400000000008df599ac9e48dbfdbcd2ef5f0e56a11744035a231a9343d8a18b3a",
        "nonce": "0x49c",
        "chainId": "0xaa36a7"
      },
      "additionalContracts": [],
      "isFixedGasLimit": false
    },
    {
      "hash": "0x4ab03380d06a2fb8e5af516a00c42445f7db84ae10b846244ca10101662f2f55",
      "transactionType": "CALL",
      "contractName": "SimplePaymentProcessor",
      "contractAddress": "0xd4a9e5ac9f54beccd7c12ca6bd7bd026bbf0058d",
      "function": "acceptPayment(uint216)",
      "arguments": [
        "60935927213002226601365886954638791788500960515100633412108959954"
      ],
      "transaction": {
        "from": "0x0f447989b14a3f0bbf08808020ec1a6de0b8cbc4",
        "to": "0xd4a9e5ac9f54beccd7c12ca6bd7bd026bbf0058d",
        "gas": "0x1a211",
        "value": "0x0",
        "input": "0x56794664000000000094208546276b08168d889b0a5693e96973bf24ae8d88eb077640d2",
        "nonce": "0x49d",
        "chainId": "0xaa36a7"
      },
      "additionalContracts": [],
      "isFixedGasLimit": false
    }
  ],
  "receipts": [
    {
      "status": "0x1",
      "cumulativeGasUsed": "0x9f5971",
      "logs": [
        {
          "address": "0xd4a9e5ac9f54beccd7c12ca6bd7bd026bbf0058d",
          "topics": [
            "0x4faf95522b4c6eb8ac7abcf48a63ead949cb081f4b9a884447e545b516ba8f6a",
            "0x00000000002833f20b54e70bb81e13895600fa5fcfe37d488c7041c87373638c"
          ],
          "data": "0x",
          "blockHash": "0x5ffd25f4577db70d927de485c934a067239d040a62f97fd38bddb0e84c65f75a",
          "blockNumber": "0x9b2d2d",
          "blockTimestamp": "0x697f6230",
          "transactionHash": "0xfec64a97c658d3b836a49c8282798a525e5503ff5e10cbdc82372fa05a158413",
          "transactionIndex": "0x2b",
          "logIndex": "0x3d",
          "removed": false
        }
      ],
      "logsBloom": "0x00000000000000000000000000000000000000000000000000000000000000000800080000001000000000000000000000000000000000008000000000000000000000000000000000000000000000000000000000000000000000000000000000000000000000000000000000000000100000000010000000000000000000000004000000000000000000000000000000000000000000000000000000000000000000000000000000000000000000000000000000000000000000000000000000000000000000000000000000000000000000000000000000000000000000000000000000000000800400000000000000000000000000000000000000000000",
      "type": "0x2",
      "transactionHash": "0xfec64a97c658d3b836a49c8282798a525e5503ff5e10cbdc82372fa05a158413",
      "transactionIndex": "0x2b",
      "blockHash": "0x5ffd25f4577db70d927de485c934a067239d040a62f97fd38bddb0e84c65f75a",
      "blockNumber": "0x9b2d2d",
      "gasUsed": "0x12ea1",
      "effectiveGasPrice": "0x3c8097fd",
      "from": "0x0f447989b14a3f0bbf08808020ec1a6de0b8cbc4",
      "to": "0xd4a9e5ac9f54beccd7c12ca6bd7bd026bbf0058d",
      "contractAddress": null
    },
    {
      "status": "0x1",
      "cumulativeGasUsed": "0xa0881e",
      "logs": [
        {
          "address": "0xd4a9e5ac9f54beccd7c12ca6bd7bd026bbf0058d",
          "topics": [
            "0x4faf95522b4c6eb8ac7abcf48a63ead949cb081f4b9a884447e545b516ba8f6a",
            "0x00000000000193838555b671386db5fa7f82eb108ff69a017898cd272933638c"
          ],
          "data": "0x",
          "blockHash": "0x5ffd25f4577db70d927de485c934a067239d040a62f97fd38bddb0e84c65f75a",
          "blockNumber": "0x9b2d2d",
          "blockTimestamp": "0x697f6230",
          "transactionHash": "0xa95e52ec2caf7371f4b904bbe0c09d7c9c6ba4ca40d2993afdc0d79171002bce",
          "transactionIndex": "0x2c",
          "logIndex": "0x3e",
          "removed": false
        }
      ],
      "logsBloom": "0x00000000000000000020000000000000000000000000000000000000000000000000080000001000000000000000000000000000000000000000000000000000000000000000000000000000000000000000000000000000000000000000000000000000000000000000000000000000100100000000000000000000000000000004000000000000000000000000000000000000000000000000000000000000000000000000000000000000000000000000000000000000000000000000000000000000000000000000000001000000000000000000000000000000000000000000000000000000800400000000000000000000000000000000000000000000",
      "type": "0x2",
      "transactionHash": "0xa95e52ec2caf7371f4b904bbe0c09d7c9c6ba4ca40d2993afdc0d79171002bce",
      "transactionIndex": "0x2c",
      "blockHash": "0x5ffd25f4577db70d927de485c934a067239d040a62f97fd38bddb0e84c65f75a",
      "blockNumber": "0x9b2d2d",
      "gasUsed": "0x12ead",
      "effectiveGasPrice": "0x3c8097fd",
      "from": "0x0f447989b14a3f0bbf08808020ec1a6de0b8cbc4",
      "to": "0xd4a9e5ac9f54beccd7c12ca6bd7bd026bbf0058d",
      "contractAddress": null
    },
    {
      "status": "0x1",
      "cumulativeGasUsed": "0xa1b6cb",
      "logs": [
        {
          "address": "0xd4a9e5ac9f54beccd7c12ca6bd7bd026bbf0058d",
          "topics": [
            "0x4faf95522b4c6eb8ac7abcf48a63ead949cb081f4b9a884447e545b516ba8f6a",
            "0x00000000007113c146d26016c93ae366e651ad3acbd97276db6258f60bae1d0a"
          ],
          "data": "0x",
          "blockHash": "0x5ffd25f4577db70d927de485c934a067239d040a62f97fd38bddb0e84c65f75a",
          "blockNumber": "0x9b2d2d",
          "blockTimestamp": "0x697f6230",
          "transactionHash": "0x2de1bd4b3aee03207c710a42edf5c15aa4c278493ce3f0301e3b43e77dda839a",
          "transactionIndex": "0x2d",
          "logIndex": "0x3f",
          "removed": false
        }
      ],
      "logsBloom": "0x00000000000000000000000000000000000000000000000000000000000080000000080000001000000000000000000000000000000000000000000000000000000000000000000000000000000000000000000000000000000000000000000000000000000000000000000000000000100000000000000000000000000000000004000000000000000000000000000000000000000000000000000000000000000000000000000000000000000000000000000000000000000000000000000000000000000000000000000080000000000000000000000000000000000000000000000000002000800400000000000000000000000000000000000000000000",
      "type": "0x2",
      "transactionHash": "0x2de1bd4b3aee03207c710a42edf5c15aa4c278493ce3f0301e3b43e77dda839a",
      "transactionIndex": "0x2d",
      "blockHash": "0x5ffd25f4577db70d927de485c934a067239d040a62f97fd38bddb0e84c65f75a",
      "blockNumber": "0x9b2d2d",
      "gasUsed": "0x12ead",
      "effectiveGasPrice": "0x3c8097fd",
      "from": "0x0f447989b14a3f0bbf08808020ec1a6de0b8cbc4",
      "to": "0xd4a9e5ac9f54beccd7c12ca6bd7bd026bbf0058d",
      "contractAddress": null
    },
    {
      "status": "0x1",
      "cumulativeGasUsed": "0xa2e56c",
      "logs": [
        {
          "address": "0xd4a9e5ac9f54beccd7c12ca6bd7bd026bbf0058d",
          "topics": [
            "0x4faf95522b4c6eb8ac7abcf48a63ead949cb081f4b9a884447e545b516ba8f6a",
            "0x0000000000847c64af58105e21a38e12295a416400e9f4a90580c62ee960bb8d"
          ],
          "data": "0x",
          "blockHash": "0x5ffd25f4577db70d927de485c934a067239d040a62f97fd38bddb0e84c65f75a",
          "blockNumber": "0x9b2d2d",
          "blockTimestamp": "0x697f6230",
          "transactionHash": "0x282ab8d44cdecd31f70bd3193d2ce063ad422b6d41ff1ee6db01111b5abb8a1d",
          "transactionIndex": "0x2e",
          "logIndex": "0x40",
          "removed": false
        }
      ],
      "logsBloom": "0x00000000000000008000000000000000000000000000000000000000000000000000080000001000000000000000000000000000000000000000000000000000000000000000000002000000000000000000000000000000000000000000000000000000000000000000000000000000100000000000000000000000000000000004000000080000000000000000000000000000000000000000000000000000000000000000000000000000000000000000000000000000000000000000000000000000000000000000000000000000000000000000000000000000000000000000000000000000800400000000000000000000000000000000000000000000",
      "type": "0x2",
      "transactionHash": "0x282ab8d44cdecd31f70bd3193d2ce063ad422b6d41ff1ee6db01111b5abb8a1d",
      "transactionIndex": "0x2e",
      "blockHash": "0x5ffd25f4577db70d927de485c934a067239d040a62f97fd38bddb0e84c65f75a",
      "blockNumber": "0x9b2d2d",
      "gasUsed": "0x12ea1",
      "effectiveGasPrice": "0x3c8097fd",
      "from": "0x0f447989b14a3f0bbf08808020ec1a6de0b8cbc4",
      "to": "0xd4a9e5ac9f54beccd7c12ca6bd7bd026bbf0058d",
      "contractAddress": null
    },
    {
      "status": "0x1",
      "cumulativeGasUsed": "0xa41419",
      "logs": [
        {
          "address": "0xd4a9e5ac9f54beccd7c12ca6bd7bd026bbf0058d",
          "topics": [
            "0x4faf95522b4c6eb8ac7abcf48a63ead949cb081f4b9a884447e545b516ba8f6a",
            "0x0000000000f240c01cd8e24f38b6e9d05ca6185ae699bad044f565b565ab6229"
          ],
          "data": "0x",
          "blockHash": "0x5ffd25f4577db70d927de485c934a067239d040a62f97fd38bddb0e84c65f75a",
          "blockNumber": "0x9b2d2d",
          "blockTimestamp": "0x697f6230",
          "transactionHash": "0x46b19d260fc70f70f3ef43cd2ae46d0223526d6065a8f8ba6eecb2562e5ad582",
          "transactionIndex": "0x2f",
          "logIndex": "0x41",
          "removed": false
        }
      ],
      "logsBloom": "0x00000000000000000000000000000000000000000000000000000000000000000000080000001000000000000000000000000020000000000000000000000000000000000000000000000000000000000000000000000000000000000000000000000000000000000000000000000000100000000000000000000000000000000004000000000000000000000000000000000000000000000000000000000000000000000000000000000000000000000000000000000000000000000000000000000000000000000000000000000000000000000000000000000000000000004080000000000000800400000000000000000000000000000000000000000000",
      "type": "0x2",
      "transactionHash": "0x46b19d260fc70f70f3ef43cd2ae46d0223526d6065a8f8ba6eecb2562e5ad582",
      "transactionIndex": "0x2f",
      "blockHash": "0x5ffd25f4577db70d927de485c934a067239d040a62f97fd38bddb0e84c65f75a",
      "blockNumber": "0x9b2d2d",
      "gasUsed": "0x12ead",
      "effectiveGasPrice": "0x3c8097fd",
      "from": "0x0f447989b14a3f0bbf08808020ec1a6de0b8cbc4",
      "to": "0xd4a9e5ac9f54beccd7c12ca6bd7bd026bbf0058d",
      "contractAddress": null
    },
    {
      "status": "0x1",
      "cumulativeGasUsed": "0xa542c6",
      "logs": [
        {
          "address": "0xd4a9e5ac9f54beccd7c12ca6bd7bd026bbf0058d",
          "topics": [
            "0x4faf95522b4c6eb8ac7abcf48a63ead949cb081f4b9a884447e545b516ba8f6a",
            "0x00000000008df599ac9e48dbfdbcd2ef5f0e56a11744035a231a9343d8a18b3a"
          ],
          "data": "0x",
          "blockHash": "0x5ffd25f4577db70d927de485c934a067239d040a62f97fd38bddb0e84c65f75a",
          "blockNumber": "0x9b2d2d",
          "blockTimestamp": "0x697f6230",
          "transactionHash": "0x13d65d377727e5e286d068ead48da23bd087ca922f5601873541f79e28b0fc14",
          "transactionIndex": "0x30",
          "logIndex": "0x42",
          "removed": false
        }
      ],
      "logsBloom": "0x00000000000000000000100000000000000000000000000000000000000000000000080000001000000000000000000000000000000000000000000000000000000000000000000000000000000000000000000000000000000000000000000000000000000000000000000000000000100000000000000000000000000000000004000000000000000000000000000000000000000000000000000000000000000000000000000000000000000010000000000000000000000000000000000000000000000000000000000000000000000000000000000000000000000000000000000000000000800410000000000000000000000000000000000000000000",
      "type": "0x2",
      "transactionHash": "0x13d65d377727e5e286d068ead48da23bd087ca922f5601873541f79e28b0fc14",
      "transactionIndex": "0x30",
      "blockHash": "0x5ffd25f4577db70d927de485c934a067239d040a62f97fd38bddb0e84c65f75a",
      "blockNumber": "0x9b2d2d",
      "gasUsed": "0x12ead",
      "effectiveGasPrice": "0x3c8097fd",
      "from": "0x0f447989b14a3f0bbf08808020ec1a6de0b8cbc4",
      "to": "0xd4a9e5ac9f54beccd7c12ca6bd7bd026bbf0058d",
      "contractAddress": null
    },
    {
      "status": "0x1",
      "cumulativeGasUsed": "0xa67173",
      "logs": [
        {
          "address": "0xd4a9e5ac9f54beccd7c12ca6bd7bd026bbf0058d",
          "topics": [
            "0x4faf95522b4c6eb8ac7abcf48a63ead949cb081f4b9a884447e545b516ba8f6a",
            "0x000000000094208546276b08168d889b0a5693e96973bf24ae8d88eb077640d2"
          ],
          "data": "0x",
          "blockHash": "0x5ffd25f4577db70d927de485c934a067239d040a62f97fd38bddb0e84c65f75a",
          "blockNumber": "0x9b2d2d",
          "blockTimestamp": "0x697f6230",
          "transactionHash": "0x4ab03380d06a2fb8e5af516a00c42445f7db84ae10b846244ca10101662f2f55",
          "transactionIndex": "0x31",
          "logIndex": "0x43",
          "removed": false
        }
      ],
      "logsBloom": "0x00000000000000000000000000000000000000000000000000000000000000000000080000001000000000000000000000000000000000000000000000000000000000000000000000000000000000000000000000000000000000000000000000000000000000000000000000000004100000000000000000000000000000000004000000000000000000000000000000000000000000000000000000000000000000000000000000000000000000000000000000000000000000000000000000000000000000400000000000000000000000000000000000000000000000000000000000000000800400000000000000000000010000000000000000000000",
      "type": "0x2",
      "transactionHash": "0x4ab03380d06a2fb8e5af516a00c42445f7db84ae10b846244ca10101662f2f55",
      "transactionIndex": "0x31",
      "blockHash": "0x5ffd25f4577db70d927de485c934a067239d040a62f97fd38bddb0e84c65f75a",
      "blockNumber": "0x9b2d2d",
      "gasUsed": "0x12ead",
      "effectiveGasPrice": "0x3c8097fd",
      "from": "0x0f447989b14a3f0bbf08808020ec1a6de0b8cbc4",
      "to": "0xd4a9e5ac9f54beccd7c12ca6bd7bd026bbf0058d",
      "contractAddress": null
    }
  ],
  "libraries": [],
  "pending": [],
  "returns": {},
  "timestamp": 1769955890379,
  "chain": 11155111,
  "commit": "944419b"
}