{
  "transactions": [
    {
      "hash": "0x8fd9a49a7c639161513659e73d7321f0d6060475618dabc0f22675e6fd2eab2f",
      "transactionType": "CALL",
      "contractName": "SimplePaymentProcessor",
      "contractAddress": "0xd4a9e5ac9f54beccd7c12ca6bd7bd026bbf0058d",
      "function": "acceptPayment(uint216)",
      "arguments": [
        "63613965283927799569083742786573708196988736966286746981467001116"
      ],
      "transaction": {
        "from": "0x0f447989b14a3f0bbf08808020ec1a6de0b8cbc4",
        "to": "0xd4a9e5ac9f54beccd7c12ca6bd7bd026bbf0058d",
        "gas": "0x1939c",
        "value": "0x0",
        "input": "0x5679466400000000009aa3115a56e848940da3169d9aacd5d421385862e434bbee19911c",
        "nonce": "0x478",
        "chainId": "0xaa36a7"
      },
      "additionalContracts": [],
      "isFixedGasLimit": false
    },
    {
      "hash": "0x0690dc3fd4f9b651eee68046482e1df6b37803f456aecee8e8f5f698f47e6240",
      "transactionType": "CALL",
      "contractName": "SimplePaymentProcessor",
      "contractAddress": "0xd4a9e5ac9f54beccd7c12ca6bd7bd026bbf0058d",
      "function": "acceptPayment(uint216)",
      "arguments": [
        "70110991704767402457750732373298256086862826852412779774053277396"
      ],
      "transaction": {
        "from": "0x0f447989b14a3f0bbf08808020ec1a6de0b8cbc4",
        "to": "0xd4a9e5ac9f54beccd7c12ca6bd7bd026bbf0058d",
        "gas": "0x1ba98",
        "value": "0x0",
        "input": "0x567946640000000000aa6e2d606b14faf04d52f3cd00d930250e368082fdec2bf1f95ed4",
        "nonce": "0x479",
        "chainId": "0xaa36a7"
      },
      "additionalContracts": [],
      "isFixedGasLimit": false
    },
    {
      "hash": "0xf3f27cad4a31f6e46e4e16c4a769d5f4b31a91c06f554ee414797632eb6c2c3a",
      "transactionType": "CALL",
      "contractName": "SimplePaymentProcessor",
      "contractAddress": "0xd4a9e5ac9f54beccd7c12ca6bd7bd026bbf0058d",
      "function": "acceptPayment(uint216)",
      "arguments": [
        "648421601523862015806655135625776044321067958933583463600841612"
      ],
      "transaction": {
        "from": "0x0f447989b14a3f0bbf08808020ec1a6de0b8cbc4",
        "to": "0xd4a9e5ac9f54beccd7c12ca6bd7bd026bbf0058d",
        "gas": "0x1e47e",
        "value": "0x0",
        "input": "0x5679466400000000000193838555b671386db5fa7f82eb108ff69a017898cd272933638c",
        "nonce": "0x47a",
        "chainId": "0xaa36a7"
      },
      "additionalContracts": [],
      "isFixedGasLimit": false
    },
    {
      "hash": "0x1cc445a7beb3770780ad111326bb85f5bd2c35874c02e65e34f5de7c719865d2",
      "transactionType": "CALL",
      "contractName": "SimplePaymentProcessor",
      "contractAddress": "0xd4a9e5ac9f54beccd7c12ca6bd7bd026bbf0058d",
      "function": "acceptPayment(uint216)",
      "arguments": [
        "60952337126333174556455743503989416366275764297334821669518289073"
      ],
      "transaction": {
        "from": "0x0f447989b14a3f0bbf08808020ec1a6de0b8cbc4",
        "to": "0xd4a9e5ac9f54beccd7c12ca6bd7bd026bbf0058d",
        "gas": "0x1f2f3",
        "value": "0x0",
        "input": "0x567946640000000000942abb8628a9a927b12b71afdbdffa84531eb7331a360c0e41a8b1",
        "nonce": "0x47b",
        "chainId": "0xaa36a7"
      },
      "additionalContracts": [],
      "isFixedGasLimit": false
    },
    {
      "hash": "0x51f3d6730b60cdb547b955d87e0a79cecad301c2801104b7ba3cb997be76b7cc",
      "transactionType": "CALL",
      "contractName": "SimplePaymentProcessor",
      "contractAddress": "0xd4a9e5ac9f54beccd7c12ca6bd7bd026bbf0058d",
      "function": "acceptPayment(uint216)",
      "arguments": [
        "95854396665045916752851187716510847734026841935597479580508299366"
      ],
      "transaction": {
        "from": "0x0f447989b14a3f0bbf08808020ec1a6de0b8cbc4",
        "to": "0xd4a9e5ac9f54beccd7c12ca6bd7bd026bbf0058d",
        "gas": "0x1a211",
        "value": "0x0",
        "input": "0x567946640000000000e9025665b929c65d6499b8f439eef12dc1519f9c9ed8ad509b2066",
        "nonce": "0x47c",
        "chainId": "0xaa36a7"
      },
      "additionalContracts": [],
      "isFixedGasLimit": false
    },
    {
      "hash": "0xb5371d0702a4b612517f7e093bf87e29a0c3602aa02e32c0c50a8d31c8d2432e",
      "transactionType": "CALL",
      "contractName": "SimplePaymentProcessor",
      "contractAddress": "0xd4a9e5ac9f54beccd7c12ca6bd7bd026bbf0058d",
      "function": "acceptPayment(uint216)",
      "arguments": [
        "16538518749940493772757772699654761212940754371727982334963835788"
      ],
      "transaction": {
        "from": "0x0f447989b14a3f0bbf08808020ec1a6de0b8cbc4",
        "to": "0xd4a9e5ac9f54beccd7c12ca6bd7bd026bbf0058d",
        "gas": "0x1f2e3",
        "value": "0x0",
        "input": "0x5679466400000000002833f20b54e70bb81e13895600fa5fcfe37d488c7041c87373638c",
        "nonce": "0x47d",
        "chainId": "0xaa36a7"
      },
      "additionalContracts": [],
      "isFixedGasLimit": false
    },
    {
      "hash": "0x6e32103ada01e43d1c4c63df6dfffaf6f079f07ed4a01b666f1f9e02afcd3777",
      "transactionType": "CALL",
      "contractName": "SimplePaymentProcessor",
      "contractAddress": "0xd4a9e5ac9f54beccd7c12ca6bd7bd026bbf0058d",
      "function": "acceptPayment(uint216)",
      "arguments": [
        "46517248784344882045256372832603246930075978430931361931149057290"
      ],
      "transaction": {
        "from": "0x0f447989b14a3f0bbf08808020ec1a6de0b8cbc4",
        "to": "0xd4a9e5ac9f54beccd7c12ca6bd7bd026bbf0058d",
        "gas": "0x1a211",
        "value": "0x0",
        "input": "0x5679466400000000007113c146d26016c93ae366e651ad3acbd97276db6258f60bae1d0a",
        "nonce": "0x47e",
        "chainId": "0xaa36a7"
      },
      "additionalContracts": [],
      "isFixedGasLimit": false
    },
    {
      "hash": "0xe201049d16e0b09c3381b540f18e65a56a77ebdd0cb8a52c6703866a71835026",
      "transactionType": "CALL",
      "contractName": "SimplePaymentProcessor",
      "contractAddress": "0xd4a9e5ac9f54beccd7c12ca6bd7bd026bbf0058d",
      "function": "acceptPayment(uint216)",
      "arguments": [
        "35207983798075560682463190605640203285003184443629648041896737835"
      ],
      "transaction": {
        "from": "0x0f447989b14a3f0bbf08808020ec1a6de0b8cbc4",
        "to": "0xd4a9e5ac9f54beccd7c12ca6bd7bd026bbf0058d",
        "gas": "0x255f3",
        "value": "0x0",
        "input": "0x5679466400000000005595fb6b6ae225b6d64178d878dbbd2d8951c8811c28d176d27c2b",
        "nonce": "0x47f",
        "chainId": "0xaa36a7"
      },
      "additionalContracts": [],
      "isFixedGasLimit": false
    },
    {
      "hash": "0x8c0ed187b45f4a4f9b03f8554f49e3656fec7d7cc759500c5591085477819086",
      "transactionType": "CALL",
      "contractName": "SimplePaymentProcessor",
      "contractAddress": "0xd4a9e5ac9f54beccd7c12ca6bd7bd026bbf0058d",
      "function": "acceptPayment(uint216)",
      "arguments": [
        "46762742632294936563775553204859033194223284030875977777726302502"
      ],
      "transaction": {
        "from": "0x0f447989b14a3f0bbf08808020ec1a6de0b8cbc4",
        "to": "0xd4a9e5ac9f54beccd7c12ca6bd7bd026bbf0058d",
        "gas": "0x1f2f3",
        "value": "0x0",
        "input": "0x56794664000000000071ac86b3f701bbe97f4edfc314340849de01bd4348d7ddb6bb2926",
        "nonce": "0x480",
        "chainId": "0xaa36a7"
      },
      "additionalContracts": [],
      "isFixedGasLimit": false
    },
    {
      "hash": "0xc138dcdd44269b04650d3d765b4fb6c4b01b4f3e763f03451b4ff4c99389d645",
      "transactionType": "CALL",
      "contractName": "SimplePaymentProcessor",
      "contractAddress": "0xd4a9e5ac9f54beccd7c12ca6bd7bd026bbf0058d",
      "function": "acceptPayment(uint216)",
      "arguments": [
        "72729901114467559260539293350792183457041808499562633734202343828"
      ],
      "transaction": {
        "from": "0x0f447989b14a3f0bbf08808020ec1a6de0b8cbc4",
        "to": "0xd4a9e5ac9f54beccd7c12ca6bd7bd026bbf0058d",
        "gas": "0x1f2f3",
        "value": "0x0",
        "input": "0x567946640000000000b0cbedb75eebf16c464a05f44caf63d62ee86a1f6ef5a91bb44194",
        "nonce": "0x481",
        "chainId": "0xaa36a7"
      },
      "additionalContracts": [],
      "isFixedGasLimit": false
    },
    {
      "hash": "0x675eb97642afb73605c5b68a4528f7f4c035dcd5bd56c134415494cd1d6059c7",
      "transactionType": "CALL",
      "contractName": "SimplePaymentProcessor",
      "contractAddress": "0xd4a9e5ac9f54beccd7c12ca6bd7bd026bbf0058d",
      "function": "acceptPayment(uint216)",
      "arguments": [
        "13073866809631531294179423402102186160101808317699938094842303861"
      ],
      "transaction": {
        "from": "0x0f447989b14a3f0bbf08808020ec1a6de0b8cbc4",
        "to": "0xd4a9e5ac9f54beccd7c12ca6bd7bd026bbf0058d",
        "gas": "0x255f3",
        "value": "0x0",
        "input": "0x5679466400000000001fc7e3256b0ccc6d6818e2086f535e5c57d2b3b1a6659a18aad575",
        "nonce": "0x482",
        "chainId": "0xaa36a7"
      },
      "additionalContracts": [],
      "isFixedGasLimit": false
    },
    {
      "hash": "0xe863f160578afbd5a4310a4a4680dc8173b4636c0651ab08858bbaddd5248efd",
      "transactionType": "CALL",
      "contractName": "SimplePaymentProcessor",
      "contractAddress": "0xd4a9e5ac9f54beccd7c12ca6bd7bd026bbf0058d",
      "function": "acceptPayment(uint216)",
      "arguments": [
        "20479655779983372785996643551938233311592345938303793226718092566"
      ],
      "transaction": {
        "from": "0x0f447989b14a3f0bbf08808020ec1a6de0b8cbc4",
        "to": "0xd4a9e5ac9f54beccd7c12ca6bd7bd026bbf0058d",
        "gas": "0x1f2f3",
        "value": "0x0",
        "input": "0x56794664000000000031c8856586b737e0512e7d5e8a93097fd0302b5f09038b45bb9d16",
        "nonce": "0x483",
        "chainId": "0xaa36a7"
      },
      "additionalContracts": [],
      "isFixedGasLimit": false
    },
    {
      "hash": "0x3c22b09dd692a64e18d8122e16f18aee6d8327a75011858979e0dc9cbfd9dd07",
      "transactionType": "CALL",
      "contractName": "SimplePaymentProcessor",
      "contractAddress": "0xd4a9e5ac9f54beccd7c12ca6bd7bd026bbf0058d",
      "function": "acceptPayment(uint216)",
      "arguments": [
        "96111153200406667545997194709173636200802557268029616261342271022"
      ],
      "transaction": {
        "from": "0x0f447989b14a3f0bbf08808020ec1a6de0b8cbc4",
        "to": "0xd4a9e5ac9f54beccd7c12ca6bd7bd026bbf0058d",
        "gas": "0x1a211",
        "value": "0x0",
        "input": "0x567946640000000000e9a21e12c4f7874e271e5032781a84577244865535037e71b1962e",
        "nonce": "0x484",
        "chainId": "0xaa36a7"
      },
      "additionalContracts": [],
      "isFixedGasLimit": false
    },
    {
      "hash": "0x5a2ab4c85c2d9564c6f58b5f2821c2b9342c2a1d8f8d075d5de1da15f5cdb7a7",
      "transactionType": "CALL",
      "contractName": "SimplePaymentProcessor",
      "contractAddress": "0xd4a9e5ac9f54beccd7c12ca6bd7bd026bbf0058d",
      "function": "acceptPayment(uint216)",
      "arguments": [
        "31798112491345523657907202045395533540148798381665240332330486201"
      ],
      "transaction": {
        "from": "0x0f447989b14a3f0bbf08808020ec1a6de0b8cbc4",
        "to": "0xd4a9e5ac9f54beccd7c12ca6bd7bd026bbf0058d",
        "gas": "0x1f2f3",
        "value": "0x0",
        "input": "0x5679466400000000004d4c039475ea24c16e2e27d853a0ca28e9246271ca6e8a8d6649b9",
        "nonce": "0x485",
        "chainId": "0xaa36a7"
      },
      "additionalContracts": [],
      "isFixedGasLimit": false
    },
    {
      "hash": "0xc7de033c5b8b11cbbaf1022fcc249f86605d392f2c8a9dcffef5c6cc12c83254",
      "transactionType": "CALL",
      "contractName": "SimplePaymentProcessor",
      "contractAddress": "0xd4a9e5ac9f54beccd7c12ca6bd7bd026bbf0058d",
      "function": "acceptPayment(uint216)",
      "arguments": [
        "70117877289438479404554901018015636236881494686678236002447550128"
      ],
      "transaction": {
        "from": "0x0f447989b14a3f0bbf08808020ec1a6de0b8cbc4",
        "to": "0xd4a9e5ac9f54beccd7c12ca6bd7bd026bbf0058d",
        "gas": "0x1a211",
        "value": "0x0",
        "input": "0x567946640000000000aa727650455a2fbc94961bc8c054cef1791f8c6e6ee265177c66b0",
        "nonce": "0x486",
        "chainId": "0xaa36a7"
      },
      "additionalContracts": [],
      "isFixedGasLimit": false
    },
    {
      "hash": "0x4386e96a3906c3ca18ec9af3d82e3015fa0b56647ae08491731c4b684aef2ebf",
      "transactionType": "CALL",
      "contractName": "SimplePaymentProcessor",
      "contractAddress": "0xd4a9e5ac9f54beccd7c12ca6bd7bd026bbf0058d",
      "function": "acceptPayment(uint216)",
      "arguments": [
        "29596829946617064408609792336682791614354390670721526168836963890"
      ],
      "transaction": {
        "from": "0x0f447989b14a3f0bbf08808020ec1a6de0b8cbc4",
        "to": "0xd4a9e5ac9f54beccd7c12ca6bd7bd026bbf0058d",
        "gas": "0x255f3",
        "value": "0x0",
        "input": "0x56794664000000000047f22709cecdf8f57b944471db10deb912aac16205a4f85f24fe32",
        "nonce": "0x487",
        "chainId": "0xaa36a7"
      },
      "additionalContracts": [],
      "isFixedGasLimit": false
    },
    {
      "hash": "0x071fc1b7dbfc0f70ed1bdc90b15709119105c4da914bf600df2fdd48532aba66",
      "transactionType": "CALL",
      "contractName": "SimplePaymentProcessor",
      "contractAddress": "0xd4a9e5ac9f54beccd7c12ca6bd7bd026bbf0058d",
      "function": "acceptPayment(uint216)",
      "arguments": [
        "34234078515456307820132695305700820908273711359246620724555157185"
      ],
      "transaction": {
        "from": "0x0f447989b14a3f0bbf08808020ec1a6de0b8cbc4",
        "to": "0xd4a9e5ac9f54beccd7c12ca6bd7bd026bbf0058d",
        "gas": "0x1f2f3",
        "value": "0x0",
        "input": "0x5679466400000000005337eb5b578d0ac5940d6075225217fa934697fe67cd67a5f80ec1",
        "nonce": "0x488",
        "chainId": "0xaa36a7"
      },
      "additionalContracts": [],
      "isFixedGasLimit": false
    },
    {
      "hash": "0xa410af2e859a1af6c744d814700f4668f0dd6d60fa634f5fe8e3332ea749646b",
      "transactionType": "CALL",
      "contractName": "SimplePaymentProcessor",
      "contractAddress": "0xd4a9e5ac9f54beccd7c12ca6bd7bd026bbf0058d",
      "function": "acceptPayment(uint216)",
      "arguments": [
        "81353413492558984712572556961056008571721815796269473293758248214"
      ],
      "transaction": {
        "from": "0x0f447989b14a3f0bbf08808020ec1a6de0b8cbc4",
        "to": "0xd4a9e5ac9f54beccd7c12ca6bd7bd026bbf0058d",
        "gas": "0x1a211",
        "value": "0x0",
        "input": "0x567946640000000000c5c25a7f6fe1eeb56dad8f59ee78db60f92032059c9fc2923a3516",
        "nonce": "0x489",
        "chainId": "0xaa36a7"
      },
      "additionalContracts": [],
      "isFixedGasLimit": false
    },
    {
      "hash": "0x8819ce8a10991f3ff67cacf8a40f461c4e5c6941f4b524a2e218ffeca463957a",
      "transactionType": "CALL",
      "contractName": "SimplePaymentProcessor",
      "contractAddress": "0xd4a9e5ac9f54beccd7c12ca6bd7bd026bbf0058d",
      "function": "acceptPayment(uint216)",
      "arguments": [
        "97673239749373177893927516457879243204797991910978837143012994721"
      ],
      "transaction": {
        "from": "0x0f447989b14a3f0bbf08808020ec1a6de0b8cbc4",
        "to": "0xd4a9e5ac9f54beccd7c12ca6bd7bd026bbf0058d",
        "gas": "0x1a211",
        "value": "0x0",
        "input": "0x567946640000000000ed6e34d160c2ec04929f898eab3f284ebdde103e39515fba176ea1",
        "nonce": "0x48a",
        "chainId": "0xaa36a7"
      },
      "additionalContracts": [],
      "isFixedGasLimit": false
    },
    {
      "hash": "0xf94ea3497302cc1f2b899836ea23d98103e17eb410b46e5de0e841e63bcc4ecb",
      "transactionType": "CALL",
      "contractName": "SimplePaymentProcessor",
      "contractAddress": "0xd4a9e5ac9f54beccd7c12ca6bd7bd026bbf0058d",
      "function": "acceptPayment(uint216)",
      "arguments": [
        "3076568989430782479761446869519225659689739094251999112323051504"
      ],
      "transaction": {
        "from": "0x0f447989b14a3f0bbf08808020ec1a6de0b8cbc4",
        "to": "0xd4a9e5ac9f54beccd7c12ca6bd7bd026bbf0058d",
        "gas": "0x29b98",
        "value": "0x0",
        "input": "0x567946640000000000077a8db7948a9acb5b2f34043ee4e3162f2a0c4b851cd46d52aff0",
        "nonce": "0x48b",
        "chainId": "0xaa36a7"
      },
      "additionalContracts": [],
      "isFixedGasLimit": false
    },
    {
      "hash": "0x237d33f14155b2fde8c8b603aa071be9035fcc78efe09065221c07ba00c01662",
      "transactionType": "CALL",
      "contractName": "SimplePaymentProcessor",
      "contractAddress": "0xd4a9e5ac9f54beccd7c12ca6bd7bd026bbf0058d",
      "function": "acceptPayment(uint216)",
      "arguments": [
        "38767395584777387374949443214649256941114104393532220208060739204"
      ],
      "transaction": {
        "from": "0x0f447989b14a3f0bbf08808020ec1a6de0b8cbc4",
        "to": "0xd4a9e5ac9f54beccd7c12ca6bd7bd026bbf0058d",
        "gas": "0x1a211",
        "value": "0x0",
        "input": "0x5679466400000000005e3d026ea338ffcff46f1f03243e57f2c045f89734d8d07f42ae84",
        "nonce": "0x48c",
        "chainId": "0xaa36a7"
      },
      "additionalContracts": [],
      "isFixedGasLimit": false
    },
    {
      "hash": "0x12c4d89c8c0c64345a980f88fe269acaf0e7af47b2d08e3288f0a854cf29e21d",
      "transactionType": "CALL",
      "contractName": "SimplePaymentProcessor",
      "contractAddress": "0xd4a9e5ac9f54beccd7c12ca6bd7bd026bbf0058d",
      "function": "acceptPayment(uint216)",
      "arguments": [
        "70209535162140965880583178499013675917292998548893655585247503205"
      ],
      "transaction": {
        "from": "0x0f447989b14a3f0bbf08808020ec1a6de0b8cbc4",
        "to": "0xd4a9e5ac9f54beccd7c12ca6bd7bd026bbf0058d",
        "gas": "0x1f2f3",
        "value": "0x0",
        "input": "0x567946640000000000aaab80414f6383de4711268cddf84ab668a6277205e788c008a365",
        "nonce": "0x48d",
        "chainId": "0xaa36a7"
      },
      "additionalContracts": [],
      "isFixedGasLimit": false
    },
    {
      "hash": "0x5e0272627b83f66a826b92d766fe10f97150b4744af2ba40c8e269561b0be665",
      "transactionType": "CALL",
      "contractName": "SimplePaymentProcessor",
      "contractAddress": "0xd4a9e5ac9f54beccd7c12ca6bd7bd026bbf0058d",
      "function": "acceptPayment(uint216)",
      "arguments": [
        "39870029768473277935112173958679685553493017246850491860462784351"
      ],
      "transaction": {
        "from": "0x0f447989b14a3f0bbf08808020ec1a6de0b8cbc4",
        "to": "0xd4a9e5ac9f54beccd7c12ca6bd7bd026bbf0058d",
        "gas": "0x1f2f3",
        "value": "0x0",
        "input": "0x56794664000000000060eb2e312becb0e551c3ff7a2aa4027b9ebcc7bec0378162f6cf5f",
        "nonce": "0x48e",
        "chainId": "0xaa36a7"
      },
      "additionalContracts": [],
      "isFixedGasLimit": false
    },
    {
      "hash": "0xb7c86c4e2ae6b9a8e0a2a75b01027f4fce6d617fc4ea566681b49b6ba1afe4ee",
      "transactionType": "CALL",
      "contractName": "SimplePaymentProcessor",
      "contractAddress": "0xd4a9e5ac9f54beccd7c12ca6bd7bd026bbf0058d",
      "function": "acceptPayment(uint216)",
      "arguments": [
        "23498183567803440382644039040694156378579530376909586829804615856"
      ],
      "transaction": {
        "from": "0x0f447989b14a3f0bbf08808020ec1a6de0b8cbc4",
        "to": "0xd4a9e5ac9f54beccd7c12ca6bd7bd026bbf0058d",
        "gas": "0x1f2e3",
        "value": "0x0",
        "input": "0x567946640000000000391ef49de7bd5b9e945fc67b0d6e3374c606bcae7793288000b8b0",
        "nonce": "0x48f",
        "chainId": "0xaa36a7"
      },
      "additionalContracts": [],
      "isFixedGasLimit": false
    },
    {
      "hash": "0x7abe109cfd25ec870499eaa7ee4cbe96d88b903730794e3f3117250fd621a79e",
      "transactionType": "CALL",
      "contractName": "SimplePaymentProcessor",
      "contractAddress": "0xd4a9e5ac9f54beccd7c12ca6bd7bd026bbf0058d",
      "function": "acceptPayment(uint216)",
      "arguments": [
        "57127763589388563473380366696537731315117390351607769102927998746"
      ],
      "transaction": {
        "from": "0x0f447989b14a3f0bbf08808020ec1a6de0b8cbc4",
        "to": "0xd4a9e5ac9f54beccd7c12ca6bd7bd026bbf0058d",
        "gas": "0x1a211",
        "value": "0x0",
        "input": "0x5679466400000000008adeb1ceba8f9d2f7e2c309c675b2ba7cbc7c1c70a6c75e4572f1a",
        "nonce": "0x490",
        "chainId": "0xaa36a7"
      },
      "additionalContracts": [],
      "isFixedGasLimit": false
    },
    {
      "hash": "0x36232de15ab9fccc01d5b6a5d0d9adec7aecf5edd3deb30e58a846e4d58222e3",
      "transactionType": "CALL",
      "contractName": "SimplePaymentProcessor",
      "contractAddress": "0xd4a9e5ac9f54beccd7c12ca6bd7bd026bbf0058d",
      "function": "acceptPayment(uint216)",
      "arguments": [
        "17065076857486495376628896863279272670008448553189020552966097802"
      ],
      "transaction": {
        "from": "0x0f447989b14a3f0bbf08808020ec1a6de0b8cbc4",
        "to": "0xd4a9e5ac9f54beccd7c12ca6bd7bd026bbf0058d",
        "gas": "0x255f3",
        "value": "0x0",
        "input": "0x567946640000000000297b9f9727d4ee0ffe688bda6c3e09be9395fb58709c1969cecb8a",
        "nonce": "0x491",
        "chainId": "0xaa36a7"
      },
      "additionalContracts": [],
      "isFixedGasLimit": false
    },
    {
      "hash": "0xf81dddc41b0ab679a75f74a69e24f0738ff0cb6082660e674d00803bdccb8ca1",
      "transactionType": "CALL",
      "contractName": "SimplePaymentProcessor",
      "contractAddress": "0xd4a9e5ac9f54beccd7c12ca6bd7bd026bbf0058d",
      "function": "acceptPayment(uint216)",
      "arguments": [
        "36026953608959900370851898484059850666148081497885197060084263936"
      ],
      "transaction": {
        "from": "0x0f447989b14a3f0bbf08808020ec1a6de0b8cbc4",
        "to": "0xd4a9e5ac9f54beccd7c12ca6bd7bd026bbf0058d",
        "gas": "0x1ba98",
        "value": "0x0",
        "input": "0x5679466400000000005793a0d674acb0959aba4772e34fea468d0ef8238fe297d04eec00",
        "nonce": "0x492",
        "chainId": "0xaa36a7"
      },
      "additionalContracts": [],
      "isFixedGasLimit": false
    },
    {
      "hash": "0x9278e4f9aff0f9e52fcc9b49e78b8b97362fc289367aa4a910b63addb4944363",
      "transactionType": "CALL",
      "contractName": "SimplePaymentProcessor",
      "contractAddress": "0xd4a9e5ac9f54beccd7c12ca6bd7bd026bbf0058d",
      "function": "acceptPayment(uint216)",
      "arguments": [
        "35655274610270758760979002372630962352779094430636162418878021662"
      ],
      "transaction": {
        "from": "0x0f447989b14a3f0bbf08808020ec1a6de0b8cbc4",
        "to": "0xd4a9e5ac9f54beccd7c12ca6bd7bd026bbf0058d",
        "gas": "0x1f2f3",
        "value": "0x0",
        "input": "0x56794664000000000056ac54f50361f2da3870f995b08cb83e60cc5bdbec86bcc865801e",
        "nonce": "0x493",
        "chainId": "0xaa36a7"
      },
      "additionalContracts": [],
      "isFixedGasLimit": false
    },
    {
      "hash": "0x79c6995c50fd68b9654d374577af869eab638c7e4c17b121cb57ea76d871d8d8",
      "transactionType": "CALL",
      "contractName": "SimplePaymentProcessor",
      "contractAddress": "0xd4a9e5ac9f54beccd7c12ca6bd7bd026bbf0058d",
      "function": "acceptPayment(uint216)",
      "arguments": [
        "59381019603174855279257830859473643976284985538131849791748206301"
      ],
      "transaction": {
        "from": "0x0f447989b14a3f0bbf08808020ec1a6de0b8cbc4",
        "to": "0xd4a9e5ac9f54beccd7c12ca6bd7bd026bbf0058d",
        "gas": "0x1a211",
        "value": "0x0",
        "input": "0x5679466400000000009058e6335172a0ed46da03c55658e2017a8f56d4a77aef1aa46edd",
        "nonce": "0x494",
        "chainId": "0xaa36a7"
      },
      "additionalContracts": [],
      "isFixedGasLimit": false
    },
    {
      "hash": "0xcddfbdfd25818fa56f5c509628952e86d778a5b558d654ce02f90c4b1d5d0854",
      "transactionType": "CALL",
      "contractName": "SimplePaymentProcessor",
      "contractAddress": "0xd4a9e5ac9f54beccd7c12ca6bd7bd026bbf0058d",
      "function": "acceptPayment(uint216)",
      "arguments": [
        "41023475658285954114454644446539508902893769646021979079532581896"
      ],
      "transaction": {
        "from": "0x0f447989b14a3f0bbf08808020ec1a6de0b8cbc4",
        "to": "0xd4a9e5ac9f54beccd7c12ca6bd7bd026bbf0058d",
        "gas": "0x1f2f3",
        "value": "0x0",
        "input": "0x56794664000000000063b8f8b94958e730f971c1d5d0b6eed87c22ffa4d9e8de6dff9408",
        "nonce": "0x495",
        "chainId": "0xaa36a7"
      },
      "additionalContracts": [],
      "isFixedGasLimit": false
    },
    {
      "hash": "0x9e29c1af0efa141317fc01907174f3a2f14f0be558ab3ed1a3a1cb47e825760a",
      "transactionType": "CALL",
      "contractName": "SimplePaymentProcessor",
      "contractAddress": "0xd4a9e5ac9f54beccd7c12ca6bd7bd026bbf0058d",
      "function": "acceptPayment(uint216)",
      "arguments": [
        "14326088229287176009333750754391664570113482621237068537606705956"
      ],
      "transaction": {
        "from": "0x0f447989b14a3f0bbf08808020ec1a6de0b8cbc4",
        "to": "0xd4a9e5ac9f54beccd7c12ca6bd7bd026bbf0058d",
        "gas": "0x29b98",
        "value": "0x0",
        "input": "0x56794664000000000022d325871269f498a6b03fd151a9ac4351fb54438ad96b0b4c1324",
        "nonce": "0x496",
        "chainId": "0xaa36a7"
      },
      "additionalContracts": [],
      "isFixedGasLimit": false
    },
    {
      "hash": null,
      "transactionType": "CALL",
      "contractName": "SimplePaymentProcessor",
      "contractAddress": "0xd4a9e5ac9f54beccd7c12ca6bd7bd026bbf0058d",
      "function": "acceptPayment(uint216)",
      "arguments": [
        "54501542718683816636513271539554140931279384973077410173732043661"
      ],
      "transaction": {
        "from": "0x0f447989b14a3f0bbf08808020ec1a6de0b8cbc4",
        "to": "0xd4a9e5ac9f54beccd7c12ca6bd7bd026bbf0058d",
        "gas": "0x1f2e3",
        "value": "0x0",
        "input": "0x567946640000000000847c64af58105e21a38e12295a416400e9f4a90580c62ee960bb8d",
        "nonce": "0x497",
        "chainId": "0xaa36a7"
      },
      "additionalContracts": [],
      "isFixedGasLimit": false
    },
    {
      "hash": null,
      "transactionType": "CALL",
      "contractName": "SimplePaymentProcessor",
      "contractAddress": "0xd4a9e5ac9f54beccd7c12ca6bd7bd026bbf0058d",
      "function": "acceptPayment(uint216)",
      "arguments": [
        "99657075663630099701466038439915476672566115973017082009272148521"
      ],
      "transaction": {
        "from": "0x0f447989b14a3f0bbf08808020ec1a6de0b8cbc4",
        "to": "0xd4a9e5ac9f54beccd7c12ca6bd7bd026bbf0058d",
        "gas": "0x1a211",
        "value": "0x0",
        "input": "0x567946640000000000f240c01cd8e24f38b6e9d05ca6185ae699bad044f565b565ab6229",
        "nonce": "0x498",
        "chainId": "0xaa36a7"
      },
      "additionalContracts": [],
      "isFixedGasLimit": false
    },
    {
      "hash": null,
      "transactionType": "CALL",
      "contractName": "SimplePaymentProcessor",
      "contractAddress": "0xd4a9e5ac9f54beccd7c12ca6bd7bd026bbf0058d",
      "function": "acceptPayment(uint216)",
      "arguments": [
        "58398700095569861610227540771976682791225837806958423704879598394"
      ],
      "transaction": {
        "from": "0x0f447989b14a3f0bbf08808020ec1a6de0b8cbc4",
        "to": "0xd4a9e5ac9f54beccd7c12ca6bd7bd026bbf0058d",
        "gas": "0x1a211",
        "value": "0x0",
        "input": "0x5679466400000000008df599ac9e48dbfdbcd2ef5f0e56a11744035a231a9343d8a18b3a",
        "nonce": "0x499",
        "chainId": "0xaa36a7"
      },
      "additionalContracts": [],
      "isFixedGasLimit": false
    },
    {
      "hash": null,
      "transactionType": "CALL",
      "contractName": "SimplePaymentProcessor",
      "contractAddress": "0xd4a9e5ac9f54beccd7c12ca6bd7bd026bbf0058d",
      "function": "acceptPayment(uint216)",
      "arguments": [
        "60935927213002226601365886954638791788500960515100633412108959954"
      ],
      "transaction": {
        "from": "0x0f447989b14a3f0bbf08808020ec1a6de0b8cbc4",
        "to": "0xd4a9e5ac9f54beccd7c12ca6bd7bd026bbf0058d",
        "gas": "0x1a211",
        "value": "0x0",
        "input": "0x56794664000000000094208546276b08168d889b0a5693e96973bf24ae8d88eb077640d2",
        "nonce": "0x49a",
        "chainId": "0xaa36a7"
      },
      "additionalContracts": [],
      "isFixedGasLimit": false
    }
  ],
  "receipts": [],
  "libraries": [],
  "pending": [
    "0x8fd9a49a7c639161513659e73d7321f0d6060475618dabc0f22675e6fd2eab2f",
    "0x0690dc3fd4f9b651eee68046482e1df6b37803f456aecee8e8f5f698f47e6240",
    "0xf3f27cad4a31f6e46e4e16c4a769d5f4b31a91c06f554ee414797632eb6c2c3a",
    "0x1cc445a7beb3770780ad111326bb85f5bd2c35874c02e65e34f5de7c719865d2",
    "0x51f3d6730b60cdb547b955d87e0a79cecad301c2801104b7ba3cb997be76b7cc",
    "0xb5371d0702a4b612517f7e093bf87e29a0c3602aa02e32c0c50a8d31c8d2432e",
    "0x6e32103ada01e43d1c4c63df6dfffaf6f079f07ed4a01b666f1f9e02afcd3777",
    "0xe201049d16e0b09c3381b540f18e65a56a77ebdd0cb8a52c6703866a71835026",
    "0x8c0ed187b45f4a4f9b03f8554f49e3656fec7d7cc759500c5591085477819086",
    "0xc138dcdd44269b04650d3d765b4fb6c4b01b4f3e763f03451b4ff4c99389d645",
    "0x675eb97642afb73605c5b68a4528f7f4c035dcd5bd56c134415494cd1d6059c7",
    "0xe863f160578afbd5a4310a4a4680dc8173b4636c0651ab08858bbaddd5248efd",
    "0x3c22b09dd692a64e18d8122e16f18aee6d8327a75011858979e0dc9cbfd9dd07",
    "0x5a2ab4c85c2d9564c6f58b5f2821c2b9342c2a1d8f8d075d5de1da15f5cdb7a7",
    "0xc7de033c5b8b11cbbaf1022fcc249f86605d392f2c8a9dcffef5c6cc12c83254",
    "0x4386e96a3906c3ca18ec9af3d82e3015fa0b56647ae08491731c4b684aef2ebf",
    "0x071fc1b7dbfc0f70ed1bdc90b15709119105c4da914bf600df2fdd48532aba66",
    "0xa410af2e859a1af6c744d814700f4668f0dd6d60fa634f5fe8e3332ea749646b",
    "0x8819ce8a10991f3ff67cacf8a40f461c4e5c6941f4b524a2e218ffeca463957a",
    "0xf94ea3497302cc1f2b899836ea23d98103e17eb410b46e5de0e841e63bcc4ecb",
    "0x237d33f14155b2fde8c8b603aa071be9035fcc78efe09065221c07ba00c01662",
    "0x12c4d89c8c0c64345a980f88fe269acaf0e7af47b2d08e3288f0a854cf29e21d",
    "0x5e0272627b83f66a826b92d766fe10f97150b4744af2ba40c8e269561b0be665",
    "0xb7c86c4e2ae6b9a8e0a2a75b01027f4fce6d617fc4ea566681b49b6ba1afe4ee",
    "0x7abe109cfd25ec870499eaa7ee4cbe96d88b903730794e3f3117250fd621a79e",
    "0x36232de15ab9fccc01d5b6a5d0d9adec7aecf5edd3deb30e58a846e4d58222e3",
    "0xf81dddc41b0ab679a75f74a69e24f0738ff0cb6082660e674d00803bdccb8ca1",
    "0x9278e4f9aff0f9e52fcc9b49e78b8b97362fc289367aa4a910b63addb4944363",
    "0x79c6995c50fd68b9654d374577af869eab638c7e4c17b121cb57ea76d871d8d8",
    "0xcddfbdfd25818fa56f5c509628952e86d778a5b558d654ce02f90c4b1d5d0854",
    "0x9e29c1af0efa141317fc01907174f3a2f14f0be558ab3ed1a3a1cb47e825760a"
  ],
  "returns": {},
  "timestamp": 1769955671946,
  "chain": 11155111,
  "commit": "944419b"
}