{
  "transactions": [
    {
      "hash": "0x3f06e47a18d0c77d548d50c1747b9795802e1637edaeaec168dc1291775d507b",
      "transactionType": "CALL",
      "contractName": "SimplePaymentProcessor",
      "contractAddress": "0xd4a9e5ac9f54beccd7c12ca6bd7bd026bbf0058d",
      "function": "acceptPayment(uint216)",
      "arguments": [
        "96225432832717710814782275213754000078258052133407420038646370482"
      ],
      "transaction": {
        "from": "0x0f447989b14a3f0bbf08808020ec1a6de0b8cbc4",
        "to": "0xd4a9e5ac9f54beccd7c12ca6bd7bd026bbf0058d",
        "gas": "0x1a211",
        "value": "0x0",
        "input": "0x567946640000000000e9e93bde7d7acbfbee252a1fc2b3bbfd85c4052651e333f75890b2",
        "nonce": "0x43b",
        "chainId": "0xaa36a7"
      },
      "additionalContracts": [],
      "isFixedGasLimit": false
    },
    {
      "hash": "0xb6d20545d20f632d67da3b223a8d05511bbaf6a38b4d5040c7d18822c5025667",
      "transactionType": "CALL",
      "contractName": "SimplePaymentProcessor",
      "contractAddress": "0xd4a9e5ac9f54beccd7c12ca6bd7bd026bbf0058d",
      "function": "acceptPayment(uint216)",
      "arguments": [
        "43275935494551782097325500100431241257834205028813515886006778811"
      ],
      "transaction": {
        "from": "0x0f447989b14a3f0bbf08808020ec1a6de0b8cbc4",
        "to": "0xd4a9e5ac9f54beccd7c12ca6bd7bd026bbf0058d",
        "gas": "0x1a211",
        "value": "0x0",
        "input": "0x5679466400000000006932ae473f1040d7c89fb2e546a77838c77db52f9d16649ba23bbb",
        "nonce": "0x43c",
        "chainId": "0xaa36a7"
      },
      "additionalContracts": [],
      "isFixedGasLimit": false
    },
    {
      "hash": "0x27b8fdd40da0ae0725f7d11f264b39ab66a02beac2e5c443680c19d517771cfa",
      "transactionType": "CALL",
      "contractName": "SimplePaymentProcessor",
      "contractAddress": "0xd4a9e5ac9f54beccd7c12ca6bd7bd026bbf0058d",
      "function": "acceptPayment(uint216)",
      "arguments": [
        "81110741913524933405549708149079541581822993181838079076541030026"
      ],
      "transaction": {
        "from": "0x0f447989b14a3f0bbf08808020ec1a6de0b8cbc4",
        "to": "0xd4a9e5ac9f54beccd7c12ca6bd7bd026bbf0058d",
        "gas": "0x1a211",
        "value": "0x0",
        "input": "0x567946640000000000c52b56af51995ef7f66d5b3f1d8cbeb427989cdc257db1753e5e8a",
        "nonce": "0x43d",
        "chainId": "0xaa36a7"
      },
      "additionalContracts": [],
      "isFixedGasLimit": false
    },
    {
      "hash": "0xf5a28445ce359af15255dbb288fce21c023d5b3cd1ef784c49dd4d8e1b767892",
      "transactionType": "CALL",
      "contractName": "SimplePaymentProcessor",
      "contractAddress": "0xd4a9e5ac9f54beccd7c12ca6bd7bd026bbf0058d",
      "function": "acceptPayment(uint216)",
      "arguments": [
        "103071688472529368476512787351292647689377876864070861124657253052"
      ],
      "transaction": {
        "from": "0x0f447989b14a3f0bbf08808020ec1a6de0b8cbc4",
        "to": "0xd4a9e5ac9f54beccd7c12ca6bd7bd026bbf0058d",
        "gas": "0x1a211",
        "value": "0x0",
        "input": "0x567946640000000000fa8dab5136510fb93accfa7fb7f232fc2e96cbf08291fa41948abc",
        "nonce": "0x43e",
        "chainId": "0xaa36a7"
      },
      "additionalContracts": [],
      "isFixedGasLimit": false
    },
    {
      "hash": "0x6f318dece10d30e86b0eea98f41947d166f6689c3ca1f7dd7c508eeec946c460",
      "transactionType": "CALL",
      "contractName": "SimplePaymentProcessor",
      "contractAddress": "0xd4a9e5ac9f54beccd7c12ca6bd7bd026bbf0058d",
      "function": "acceptPayment(uint216)",
      "arguments": [
        "28629207433692140281170083076874348864563123765672246211769587068"
      ],
      "transaction": {
        "from": "0x0f447989b14a3f0bbf08808020ec1a6de0b8cbc4",
        "to": "0xd4a9e5ac9f54beccd7c12ca6bd7bd026bbf0058d",
        "gas": "0x1f2f3",
        "value": "0x0",
        "input": "0x5679466400000000004597ffe0e3b9817dcb63a0e3caf8a3017502e0ef3bc4466dd4d57c",
        "nonce": "0x43f",
        "chainId": "0xaa36a7"
      },
      "additionalContracts": [],
      "isFixedGasLimit": false
    },
    {
      "hash": "0xc2e577158aa5637aeff7f39f6ed9b9c3a0f20c34b3942e67f8b7b2a7f1a7cdb8",
      "transactionType": "CALL",
      "contractName": "SimplePaymentProcessor",
      "contractAddress": "0xd4a9e5ac9f54beccd7c12ca6bd7bd026bbf0058d",
      "function": "acceptPayment(uint216)",
      "arguments": [
        "37488502385128391151726543192474024964025247917330655978775206425"
      ],
      "transaction": {
        "from": "0x0f447989b14a3f0bbf08808020ec1a6de0b8cbc4",
        "to": "0xd4a9e5ac9f54beccd7c12ca6bd7bd026bbf0058d",
        "gas": "0x1a211",
        "value": "0x0",
        "input": "0x5679466400000000005b2126fdb39a44f6b853f839021e6c6552dcf541f359d51c555a19",
        "nonce": "0x440",
        "chainId": "0xaa36a7"
      },
      "additionalContracts": [],
      "isFixedGasLimit": false
    },
    {
      "hash": "0x2a5cb75a153dd61f3af73c0de26a1cefc07def6f0adea824f0bfef3198c50732",
      "transactionType": "CALL",
      "contractName": "SimplePaymentProcessor",
      "contractAddress": "0xd4a9e5ac9f54beccd7c12ca6bd7bd026bbf0058d",
      "function": "acceptPayment(uint216)",
      "arguments": [
        "58410482266176432392317720526194871962562280467676738803910990222"
      ],
      "transaction": {
        "from": "0x0f447989b14a3f0bbf08808020ec1a6de0b8cbc4",
        "to": "0xd4a9e5ac9f54beccd7c12ca6bd7bd026bbf0058d",
        "gas": "0x1a211",
        "value": "0x0",
        "input": "0x5679466400000000008dfceeaeaf166325297d4f104d34d0c8367f36deac47802942598e",
        "nonce": "0x441",
        "chainId": "0xaa36a7"
      },
      "additionalContracts": [],
      "isFixedGasLimit": false
    },
    {
      "hash": "0x10c302990d8e9c8eacb79cba868271871ed601d5b8785cb489ee4e5001954e15",
      "transactionType": "CALL",
      "contractName": "SimplePaymentProcessor",
      "contractAddress": "0xd4a9e5ac9f54beccd7c12ca6bd7bd026bbf0058d",
      "function": "acceptPayment(uint216)",
      "arguments": [
        "59273186980441790148238271239946570966807085942244180139849699597"
      ],
      "transaction": {
        "from": "0x0f447989b14a3f0bbf08808020ec1a6de0b8cbc4",
        "to": "0xd4a9e5ac9f54beccd7c12ca6bd7bd026bbf0058d",
        "gas": "0x1a211",
        "value": "0x0",
        "input": "0x5679466400000000009015cb78f99501b66e0649f428660697a41ced05771330750a510d",
        "nonce": "0x442",
        "chainId": "0xaa36a7"
      },
      "additionalContracts": [],
      "isFixedGasLimit": false
    },
    {
      "hash": "0x024840e0bb2ffd952faadb7b0046a8f77c8df9573465201028a8189a5a98d64b",
      "transactionType": "CALL",
      "contractName": "SimplePaymentProcessor",
      "contractAddress": "0xd4a9e5ac9f54beccd7c12ca6bd7bd026bbf0058d",
      "function": "acceptPayment(uint216)",
      "arguments": [
        "100499585172160392817003391646174370806883494972192405619768709124"
      ],
      "transaction": {
        "from": "0x0f447989b14a3f0bbf08808020ec1a6de0b8cbc4",
        "to": "0xd4a9e5ac9f54beccd7c12ca6bd7bd026bbf0058d",
        "gas": "0x1a211",
        "value": "0x0",
        "input": "0x567946640000000000f44d0b9ef96f325298c8c9642906b7af5381ccaf6bb678b68a5004",
        "nonce": "0x443",
        "chainId": "0xaa36a7"
      },
      "additionalContracts": [],
      "isFixedGasLimit": false
    },
    {
      "hash": "0x5dcf078138e1a4d2c6c57bfb3d606d5a782d31647f6b1f81e7184ccae7c94efd",
      "transactionType": "CALL",
      "contractName": "SimplePaymentProcessor",
      "contractAddress": "0xd4a9e5ac9f54beccd7c12ca6bd7bd026bbf0058d",
      "function": "acceptPayment(uint216)",
      "arguments": [
        "47230792027702031974939126302264955626368115205590034818709632695"
      ],
      "transaction": {
        "from": "0x0f447989b14a3f0bbf08808020ec1a6de0b8cbc4",
        "to": "0xd4a9e5ac9f54beccd7c12ca6bd7bd026bbf0058d",
        "gas": "0x1f2f3",
        "value": "0x0",
        "input": "0x56794664000000000072cfcb4608c1ce8d803a233b7a9fefd2f92784fe4e70de2b40b6b7",
        "nonce": "0x444",
        "chainId": "0xaa36a7"
      },
      "additionalContracts": [],
      "isFixedGasLimit": false
    },
    {
      "hash": "0x3f45f67d96fcf5f67fe0f63a90f2a12b2386598b4abff07ce22fcff8e9dd90c4",
      "transactionType": "CALL",
      "contractName": "SimplePaymentProcessor",
      "contractAddress": "0xd4a9e5ac9f54beccd7c12ca6bd7bd026bbf0058d",
      "function": "acceptPayment(uint216)",
      "arguments": [
        "101946317260498418217265564374529034365358176928750694230035934468"
      ],
      "transaction": {
        "from": "0x0f447989b14a3f0bbf08808020ec1a6de0b8cbc4",
        "to": "0xd4a9e5ac9f54beccd7c12ca6bd7bd026bbf0058d",
        "gas": "0x1a211",
        "value": "0x0",
        "input": "0x567946640000000000f7d15956f97b0e49c99b49139b29d2646f7f340f4c7f010aba2d04",
        "nonce": "0x445",
        "chainId": "0xaa36a7"
      },
      "additionalContracts": [],
      "isFixedGasLimit": false
    },
    {
      "hash": "0x63c1150b9d4bf970e3576a7759d3b9e718713d369539e270565be874635a9cdd",
      "transactionType": "CALL",
      "contractName": "SimplePaymentProcessor",
      "contractAddress": "0xd4a9e5ac9f54beccd7c12ca6bd7bd026bbf0058d",
      "function": "acceptPayment(uint216)",
      "arguments": [
        "102549532271100637714589059436078834463965968767971427102428694202"
      ],
      "transaction": {
        "from": "0x0f447989b14a3f0bbf08808020ec1a6de0b8cbc4",
        "to": "0xd4a9e5ac9f54beccd7c12ca6bd7bd026bbf0058d",
        "gas": "0x1f2f3",
        "value": "0x0",
        "input": "0x567946640000000000f948bb08ffa28ec778b037a4c1911fd025f35335f99319d40f06ba",
        "nonce": "0x446",
        "chainId": "0xaa36a7"
      },
      "additionalContracts": [],
      "isFixedGasLimit": false
    },
    {
      "hash": "0x9af9d27d9955bd5f314dfb097d058cfec8d8fcabb80886dc92e1569f699b326b",
      "transactionType": "CALL",
      "contractName": "SimplePaymentProcessor",
      "contractAddress": "0xd4a9e5ac9f54beccd7c12ca6bd7bd026bbf0058d",
      "function": "acceptPayment(uint216)",
      "arguments": [
        "46081579858297014590938135052034363156023842901315603994970707192"
      ],
      "transaction": {
        "from": "0x0f447989b14a3f0bbf08808020ec1a6de0b8cbc4",
        "to": "0xd4a9e5ac9f54beccd7c12ca6bd7bd026bbf0058d",
        "gas": "0x1f2f3",
        "value": "0x0",
        "input": "0x5679466400000000007004a33662d7951365ab5a1ef77c1118081ce2d1e4e8f73e2054f8",
        "nonce": "0x447",
        "chainId": "0xaa36a7"
      },
      "additionalContracts": [],
      "isFixedGasLimit": false
    },
    {
      "hash": "0x7cba7629ee8c9a66efb39b43c02df9ebc8a9148e063b71f2ec3c98ef87570fea",
      "transactionType": "CALL",
      "contractName": "SimplePaymentProcessor",
      "contractAddress": "0xd4a9e5ac9f54beccd7c12ca6bd7bd026bbf0058d",
      "function": "acceptPayment(uint216)",
      "arguments": [
        "3984720517629474776062549800986374203139983375427313823376677511"
      ],
      "transaction": {
        "from": "0x0f447989b14a3f0bbf08808020ec1a6de0b8cbc4",
        "to": "0xd4a9e5ac9f54beccd7c12ca6bd7bd026bbf0058d",
        "gas": "0x255f3",
        "value": "0x0",
        "input": "0x56794664000000000009afb29a3bdc5dee79e5b1247f6e4e9e8e42347baefc2c78d71a87",
        "nonce": "0x448",
        "chainId": "0xaa36a7"
      },
      "additionalContracts": [],
      "isFixedGasLimit": false
    },
    {
      "hash": "0xb8c726d64a50a3f0d275d329a1a20689b3c4ff88e080ec7245836e92e7966132",
      "transactionType": "CALL",
      "contractName": "SimplePaymentProcessor",
      "contractAddress": "0xd4a9e5ac9f54beccd7c12ca6bd7bd026bbf0058d",
      "function": "acceptPayment(uint216)",
      "arguments": [
        "80924203787227561309645773903626924217176670263399062837139060450"
      ],
      "transaction": {
        "from": "0x0f447989b14a3f0bbf08808020ec1a6de0b8cbc4",
        "to": "0xd4a9e5ac9f54beccd7c12ca6bd7bd026bbf0058d",
        "gas": "0x1a211",
        "value": "0x0",
        "input": "0x567946640000000000c4b74172633b08ab55971446a72c23f0427cd4ce6b04d93137b6e2",
        "nonce": "0x449",
        "chainId": "0xaa36a7"
      },
      "additionalContracts": [],
      "isFixedGasLimit": false
    },
    {
      "hash": "0xa982d9d127a20ed0920992f9a2ef836e8c1be6e2b733fbdb1b031b78d266e2da",
      "transactionType": "CALL",
      "contractName": "SimplePaymentProcessor",
      "contractAddress": "0xd4a9e5ac9f54beccd7c12ca6bd7bd026bbf0058d",
      "function": "acceptPayment(uint216)",
      "arguments": [
        "54496674624394800984820326355445951942510510693641003159584829595"
      ],
      "transaction": {
        "from": "0x0f447989b14a3f0bbf08808020ec1a6de0b8cbc4",
        "to": "0xd4a9e5ac9f54beccd7c12ca6bd7bd026bbf0058d",
        "gas": "0x1a211",
        "value": "0x0",
        "input": "0x56794664000000000084795d271c33490a063430de482c1ce60a70910fca4eca0d68f09b",
        "nonce": "0x44a",
        "chainId": "0xaa36a7"
      },
      "additionalContracts": [],
      "isFixedGasLimit": false
    },
    {
      "hash": "0xab71f78dadcd89923e0697e5a579c9e14b845db31aaa67089f0286097ac7d52f",
      "transactionType": "CALL",
      "contractName": "SimplePaymentProcessor",
      "contractAddress": "0xd4a9e5ac9f54beccd7c12ca6bd7bd026bbf0058d",
      "function": "acceptPayment(uint216)",
      "arguments": [
        "102500217969975426136046044291948097662239843549133402519125286703"
      ],
      "transaction": {
        "from": "0x0f447989b14a3f0bbf08808020ec1a6de0b8cbc4",
        "to": "0xd4a9e5ac9f54beccd7c12ca6bd7bd026bbf0058d",
        "gas": "0x1a211",
        "value": "0x0",
        "input": "0x567946640000000000f92a0ad0507c3b7c879de9960eec1d0cb8115c4c5fd60ff5eedf2f",
        "nonce": "0x44b",
        "chainId": "0xaa36a7"
      },
      "additionalContracts": [],
      "isFixedGasLimit": false
    },
    {
      "hash": "0x57e7f99910ab47b7536ea34259cf91c83e6d5a4d1a93a815abfc00cb2bcd81f7",
      "transactionType": "CALL",
      "contractName": "SimplePaymentProcessor",
      "contractAddress": "0xd4a9e5ac9f54beccd7c12ca6bd7bd026bbf0058d",
      "function": "acceptPayment(uint216)",
      "arguments": [
        "25889430219484885806230734876659663798982514997283691259498879635"
      ],
      "transaction": {
        "from": "0x0f447989b14a3f0bbf08808020ec1a6de0b8cbc4",
        "to": "0xd4a9e5ac9f54beccd7c12ca6bd7bd026bbf0058d",
        "gas": "0x1f2f3",
        "value": "0x0",
        "input": "0x5679466400000000003eef082fc839a6606871df7f7103e27c67650397fb9032f8045a93",
        "nonce": "0x44c",
        "chainId": "0xaa36a7"
      },
      "additionalContracts": [],
      "isFixedGasLimit": false
    },
    {
      "hash": "0x0dbe0713d46b61e1d9e876275df29f61850145f5141b425e1c77c120feb867d5",
      "transactionType": "CALL",
      "contractName": "SimplePaymentProcessor",
      "contractAddress": "0xd4a9e5ac9f54beccd7c12ca6bd7bd026bbf0058d",
      "function": "acceptPayment(uint216)",
      "arguments": [
        "20323467074809827530056917003338531882174879515540101530865986871"
      ],
      "transaction": {
        "from": "0x0f447989b14a3f0bbf08808020ec1a6de0b8cbc4",
        "to": "0xd4a9e5ac9f54beccd7c12ca6bd7bd026bbf0058d",
        "gas": "0x1f2f3",
        "value": "0x0",
        "input": "0x56794664000000000031675319ad905f46074de48857b9fd38f74cbcb3a4aa6db5756d37",
        "nonce": "0x44d",
        "chainId": "0xaa36a7"
      },
      "additionalContracts": [],
      "isFixedGasLimit": false
    },
    {
      "hash": "0x4f3f02e292419a62e62d30c0426d5a941a3b22ceba0326eb08cac2f285c7e03d",
      "transactionType": "CALL",
      "contractName": "SimplePaymentProcessor",
      "contractAddress": "0xd4a9e5ac9f54beccd7c12ca6bd7bd026bbf0058d",
      "function": "acceptPayment(uint216)",
      "arguments": [
        "102688247526999096261037606744679224250747514006439634221536929982"
      ],
      "transaction": {
        "from": "0x0f447989b14a3f0bbf08808020ec1a6de0b8cbc4",
        "to": "0xd4a9e5ac9f54beccd7c12ca6bd7bd026bbf0058d",
        "gas": "0x1a211",
        "value": "0x0",
        "input": "0x567946640000000000f99f0da67e2f5db37fb5801c63ecc6d2a56903c62f0b5b0a6868be",
        "nonce": "0x44e",
        "chainId": "0xaa36a7"
      },
      "additionalContracts": [],
      "isFixedGasLimit": false
    },
    {
      "hash": "0x11938c704ce3555b4b636474f80b6a71fdf452ed8f57173c777700a6b68900db",
      "transactionType": "CALL",
      "contractName": "SimplePaymentProcessor",
      "contractAddress": "0xd4a9e5ac9f54beccd7c12ca6bd7bd026bbf0058d",
      "function": "acceptPayment(uint216)",
      "arguments": [
        "3511216051025377143507549845061310968213066312475466287258917372"
      ],
      "transaction": {
        "from": "0x0f447989b14a3f0bbf08808020ec1a6de0b8cbc4",
        "to": "0xd4a9e5ac9f54beccd7c12ca6bd7bd026bbf0058d",
        "gas": "0x234a9",
        "value": "0x0",
        "input": "0x567946640000000000088908fd2961e7fb295a65ac27a80082248ab0c0845168ceddd9fc",
        "nonce": "0x44f",
        "chainId": "0xaa36a7"
      },
      "additionalContracts": [],
      "isFixedGasLimit": false
    },
    {
      "hash": "0x02ccab4c32be1e95e1d1494610687268d30dec31aea768de2551fb37cfa9ccbb",
      "transactionType": "CALL",
      "contractName": "SimplePaymentProcessor",
      "contractAddress": "0xd4a9e5ac9f54beccd7c12ca6bd7bd026bbf0058d",
      "function": "acceptPayment(uint216)",
      "arguments": [
        "82692901322161139117634736591095523278387889143493229377845228711"
      ],
      "transaction": {
        "from": "0x0f447989b14a3f0bbf08808020ec1a6de0b8cbc4",
        "to": "0xd4a9e5ac9f54beccd7c12ca6bd7bd026bbf0058d",
        "gas": "0x1f2f3",
        "value": "0x0",
        "input": "0x567946640000000000c903eb386ed08f1cf5ccde1be487c315dc046cbc7a619330bc74a7",
        "nonce": "0x450",
        "chainId": "0xaa36a7"
      },
      "additionalContracts": [],
      "isFixedGasLimit": false
    },
    {
      "hash": "0x28930a8f07ee1afa4f71134d054408182fe75a8de5b53e3d8c4cc654a6c45396",
      "transactionType": "CALL",
      "contractName": "SimplePaymentProcessor",
      "contractAddress": "0xd4a9e5ac9f54beccd7c12ca6bd7bd026bbf0058d",
      "function": "acceptPayment(uint216)",
      "arguments": [
        "9484821816528987742745323910973172247994110862829066646683864295"
      ],
      "transaction": {
        "from": "0x0f447989b14a3f0bbf08808020ec1a6de0b8cbc4",
        "to": "0xd4a9e5ac9f54beccd7c12ca6bd7bd026bbf0058d",
        "gas": "0x1f2e3",
        "value": "0x0",
        "input": "0x567946640000000000170e6b4a9c1b3b7f01fe39c8727ce30200a23af6a669e0402f4ce7",
        "nonce": "0x451",
        "chainId": "0xaa36a7"
      },
      "additionalContracts": [],
      "isFixedGasLimit": false
    },
    {
      "hash": "0x943b95850dfe387af286c18a974cc5230ae186dddb5ac782243a20f3c40fb382",
      "transactionType": "CALL",
      "contractName": "SimplePaymentProcessor",
      "contractAddress": "0xd4a9e5ac9f54beccd7c12ca6bd7bd026bbf0058d",
      "function": "acceptPayment(uint216)",
      "arguments": [
        "100468259492696518533290907020904755906566090525457512358699377691"
      ],
      "transaction": {
        "from": "0x0f447989b14a3f0bbf08808020ec1a6de0b8cbc4",
        "to": "0xd4a9e5ac9f54beccd7c12ca6bd7bd026bbf0058d",
        "gas": "0x1a211",
        "value": "0x0",
        "input": "0x567946640000000000f4398d26ff907e5b0245411bd1ed17958d81c6b4fc8de946f4a41b",
        "nonce": "0x452",
        "chainId": "0xaa36a7"
      },
      "additionalContracts": [],
      "isFixedGasLimit": false
    },
    {
      "hash": "0x4cc4417f8b9b24aee890242c066ccdb29ffe927e4416c696e598ccd3faa5f525",
      "transactionType": "CALL",
      "contractName": "SimplePaymentProcessor",
      "contractAddress": "0xd4a9e5ac9f54beccd7c12ca6bd7bd026bbf0058d",
      "function": "acceptPayment(uint216)",
      "arguments": [
        "85845000914907325714107449575668861103307436439655928537636344207"
      ],
      "transaction": {
        "from": "0x0f447989b14a3f0bbf08808020ec1a6de0b8cbc4",
        "to": "0xd4a9e5ac9f54beccd7c12ca6bd7bd026bbf0058d",
        "gas": "0x1a211",
        "value": "0x0",
        "input": "0x567946640000000000d0ad79a8289c8c6504d98bfa13f859d3d448c45bd932757bd7118f",
        "nonce": "0x453",
        "chainId": "0xaa36a7"
      },
      "additionalContracts": [],
      "isFixedGasLimit": false
    },
    {
      "hash": "0x81b913d233714ad70f01f2841406858ed9188730b6538de60b7653fea75fab3b",
      "transactionType": "CALL",
      "contractName": "SimplePaymentProcessor",
      "contractAddress": "0xd4a9e5ac9f54beccd7c12ca6bd7bd026bbf0058d",
      "function": "acceptPayment(uint216)",
      "arguments": [
        "27006400351891865177973261401213921995175914419897573785820092188"
      ],
      "transaction": {
        "from": "0x0f447989b14a3f0bbf08808020ec1a6de0b8cbc4",
        "to": "0xd4a9e5ac9f54beccd7c12ca6bd7bd026bbf0058d",
        "gas": "0x255f3",
        "value": "0x0",
        "input": "0x56794664000000000041a61fcb813608114f7ddb58c573e2a49e52fb7b5205e71e6e571c",
        "nonce": "0x454",
        "chainId": "0xaa36a7"
      },
      "additionalContracts": [],
      "isFixedGasLimit": false
    },
    {
      "hash": "0xb1f15d3b76ddf9341bc155a834049d20682d9a4a7321b3929008aa93070e1180",
      "transactionType": "CALL",
      "contractName": "SimplePaymentProcessor",
      "contractAddress": "0xd4a9e5ac9f54beccd7c12ca6bd7bd026bbf0058d",
      "function": "acceptPayment(uint216)",
      "arguments": [
        "69032818062823800503910551594288882018779727904921946690579521868"
      ],
      "transaction": {
        "from": "0x0f447989b14a3f0bbf08808020ec1a6de0b8cbc4",
        "to": "0xd4a9e5ac9f54beccd7c12ca6bd7bd026bbf0058d",
        "gas": "0x1a211",
        "value": "0x0",
        "input": "0x567946640000000000a7cf3a67e6328acdb19505509ecd270b0ae88d62fee1456e56e14c",
        "nonce": "0x455",
        "chainId": "0xaa36a7"
      },
      "additionalContracts": [],
      "isFixedGasLimit": false
    },
    {
      "hash": "0xf76c1efd7e5c1115891ecaec595190948edffd9637f56b0b84a2d3545643a5b1",
      "transactionType": "CALL",
      "contractName": "SimplePaymentProcessor",
      "contractAddress": "0xd4a9e5ac9f54beccd7c12ca6bd7bd026bbf0058d",
      "function": "acceptPayment(uint216)",
      "arguments": [
        "12666646542890545811626165854166261123981534945886587049650193682"
      ],
      "transaction": {
        "from": "0x0f447989b14a3f0bbf08808020ec1a6de0b8cbc4",
        "to": "0xd4a9e5ac9f54beccd7c12ca6bd7bd026bbf0058d",
        "gas": "0x255f3",
        "value": "0x0",
        "input": "0x5679466400000000001eca7937016929724e1ee6aedd20844d9808171243fa3163c08512",
        "nonce": "0x456",
        "chainId": "0xaa36a7"
      },
      "additionalContracts": [],
      "isFixedGasLimit": false
    },
    {
      "hash": "0x51af6d5ff0f9221655f3b13075b9cafdd65449ef373a8c4623dac66e8d59a8eb",
      "transactionType": "CALL",
      "contractName": "SimplePaymentProcessor",
      "contractAddress": "0xd4a9e5ac9f54beccd7c12ca6bd7bd026bbf0058d",
      "function": "acceptPayment(uint216)",
      "arguments": [
        "88960103446050974576075601129724983480389865883519239722510051324"
      ],
      "transaction": {
        "from": "0x0f447989b14a3f0bbf08808020ec1a6de0b8cbc4",
        "to": "0xd4a9e5ac9f54beccd7c12ca6bd7bd026bbf0058d",
        "gas": "0x1a211",
        "value": "0x0",
        "input": "0x567946640000000000d840021f10342afd326f025ba3c6a372ad3702f89ef0a2cb07e7fc",
        "nonce": "0x457",
        "chainId": "0xaa36a7"
      },
      "additionalContracts": [],
      "isFixedGasLimit": false
    },
    {
      "hash": "0x60a9614802a8999ec414614c81a60861a65c01e16d4206f21e61efd8fd4d8146",
      "transactionType": "CALL",
      "contractName": "SimplePaymentProcessor",
      "contractAddress": "0xd4a9e5ac9f54beccd7c12ca6bd7bd026bbf0058d",
      "function": "acceptPayment(uint216)",
      "arguments": [
        "38655143601308533619346835931324201990419613391909976539776399558"
      ],
      "transaction": {
        "from": "0x0f447989b14a3f0bbf08808020ec1a6de0b8cbc4",
        "to": "0xd4a9e5ac9f54beccd7c12ca6bd7bd026bbf0058d",
        "gas": "0x1f2f3",
        "value": "0x0",
        "input": "0x5679466400000000005df727a8d463982bf3149fd56e8d7f255f99eb3d8d06c6292bb8c6",
        "nonce": "0x458",
        "chainId": "0xaa36a7"
      },
      "additionalContracts": [],
      "isFixedGasLimit": false
    },
    {
      "hash": "0x2a0c6cef8fdca9fcfd05ea6658fae208addd64402a0830fe7eb1d8c31c4a0bcd",
      "transactionType": "CALL",
      "contractName": "SimplePaymentProcessor",
      "contractAddress": "0xd4a9e5ac9f54beccd7c12ca6bd7bd026bbf0058d",
      "function": "acceptPayment(uint216)",
      "arguments": [
        "86642317216284045694422578580782715872353191108080549052587182251"
      ],
      "transaction": {
        "from": "0x0f447989b14a3f0bbf08808020ec1a6de0b8cbc4",
        "to": "0xd4a9e5ac9f54beccd7c12ca6bd7bd026bbf0058d",
        "gas": "0x1a211",
        "value": "0x0",
        "input": "0x567946640000000000d29da578cea97aa57138ce529f2305bb423f0391f423897b0408ab",
        "nonce": "0x459",
        "chainId": "0xaa36a7"
      },
      "additionalContracts": [],
      "isFixedGasLimit": false
    },
    {
      "hash": "0x80a8a040cd811aed1750a83ffb47960fa8c4fab467bda5d1584cc8a1e48e8813",
      "transactionType": "CALL",
      "contractName": "SimplePaymentProcessor",
      "contractAddress": "0xd4a9e5ac9f54beccd7c12ca6bd7bd026bbf0058d",
      "function": "acceptPayment(uint216)",
      "arguments": [
        "8985978518191885750989772886123604703605979773590294941344586457"
      ],
      "transaction": {
        "from": "0x0f447989b14a3f0bbf08808020ec1a6de0b8cbc4",
        "to": "0xd4a9e5ac9f54beccd7c12ca6bd7bd026bbf0058d",
        "gas": "0x255f3",
        "value": "0x0",
        "input": "0x56794664000000000015d7fcf8168dd555b9381c5384db17d8d14e0a02e3d4fd8761dad9",
        "nonce": "0x45a",
        "chainId": "0xaa36a7"
      },
      "additionalContracts": [],
      "isFixedGasLimit": false
    },
    {
      "hash": "0x778de5b3069f45ab7d723f2dcc98682ec0620acc3da0d95cc3f419ec48873f6c",
      "transactionType": "CALL",
      "contractName": "SimplePaymentProcessor",
      "contractAddress": "0xd4a9e5ac9f54beccd7c12ca6bd7bd026bbf0058d",
      "function": "acceptPayment(uint216)",
      "arguments": [
        "81087002838363666407818192495972298917709096126430460087986366765"
      ],
      "transaction": {
        "from": "0x0f447989b14a3f0bbf08808020ec1a6de0b8cbc4",
        "to": "0xd4a9e5ac9f54beccd7c12ca6bd7bd026bbf0058d",
        "gas": "0x1a211",
        "value": "0x0",
        "input": "0x567946640000000000c51c90d4fc741c3f5403cca60dc888a799949be02240aba6a1292d",
        "nonce": "0x45b",
        "chainId": "0xaa36a7"
      },
      "additionalContracts": [],
      "isFixedGasLimit": false
    },
    {
      "hash": "0x30ff1c43b1594a84279fb6afc43400868daf0b0b1e5e657d101d9f9bfb59de64",
      "transactionType": "CALL",
      "contractName": "SimplePaymentProcessor",
      "contractAddress": "0xd4a9e5ac9f54beccd7c12ca6bd7bd026bbf0058d",
      "function": "acceptPayment(uint216)",
      "arguments": [
        "65955397107004638741400896080476230656744977772930237790195333026"
      ],
      "transaction": {
        "from": "0x0f447989b14a3f0bbf08808020ec1a6de0b8cbc4",
        "to": "0xd4a9e5ac9f54beccd7c12ca6bd7bd026bbf0058d",
        "gas": "0x1f2f3",
        "value": "0x0",
        "input": "0x567946640000000000a05424f67186e487237a022686a95d99d9fe61117b0efec36cb7a2",
        "nonce": "0x45c",
        "chainId": "0xaa36a7"
      },
      "additionalContracts": [],
      "isFixedGasLimit": false
    },
    {
      "hash": "0x21298aadd81731ed4c5845e03371dd40bf59da1cb9f08eb3f06eeb55e452b40b",
      "transactionType": "CALL",
      "contractName": "SimplePaymentProcessor",
      "contractAddress": "0xd4a9e5ac9f54beccd7c12ca6bd7bd026bbf0058d",
      "function": "acceptPayment(uint216)",
      "arguments": [
        "51363163857932278885831386628596378669927644416670857353558317691"
      ],
      "transaction": {
        "from": "0x0f447989b14a3f0bbf08808020ec1a6de0b8cbc4",
        "to": "0xd4a9e5ac9f54beccd7c12ca6bd7bd026bbf0058d",
        "gas": "0x1f2f3",
        "value": "0x0",
        "input": "0x5679466400000000007cdb601654544f040e379847025525895cba24491ab1f841cd5a7b",
        "nonce": "0x45d",
        "chainId": "0xaa36a7"
      },
      "additionalContracts": [],
      "isFixedGasLimit": false
    },
    {
      "hash": "0x705dbf21d640c1a02477f622cb60fe028a7eb693e83d193a6ec520023b85be88",
      "transactionType": "CALL",
      "contractName": "SimplePaymentProcessor",
      "contractAddress": "0xd4a9e5ac9f54beccd7c12ca6bd7bd026bbf0058d",
      "function": "acceptPayment(uint216)",
      "arguments": [
        "87914948737274431521709833916953573608156248600424994411978563774"
      ],
      "transaction": {
        "from": "0x0f447989b14a3f0bbf08808020ec1a6de0b8cbc4",
        "to": "0xd4a9e5ac9f54beccd7c12ca6bd7bd026bbf0058d",
        "gas": "0x1a211",
        "value": "0x0",
        "input": "0x567946640000000000d5b59b5ebeb789a42316777941e82963216c5aeeeafdaad6e220be",
        "nonce": "0x45e",
        "chainId": "0xaa36a7"
      },
      "additionalContracts": [],
      "isFixedGasLimit": false
    },
    {
      "hash": "0x957f5ce89acc490b519c8ac00887bfe9e7008958a145d0a5a4f3284dc6d50810",
      "transactionType": "CALL",
      "contractName": "SimplePaymentProcessor",
      "contractAddress": "0xd4a9e5ac9f54beccd7c12ca6bd7bd026bbf0058d",
      "function": "acceptPayment(uint216)",
      "arguments": [
        "104888861924169020577137190385074414695427299117925726199569288694"
      ],
      "transaction": {
        "from": "0x0f447989b14a3f0bbf08808020ec1a6de0b8cbc4",
        "to": "0xd4a9e5ac9f54beccd7c12ca6bd7bd026bbf0058d",
        "gas": "0x1a211",
        "value": "0x0",
        "input": "0x567946640000000000fef87fbffb4bf35f3b7b81db9b8c4e8133bddcb3e562c64d2d8df6",
        "nonce": "0x45f",
        "chainId": "0xaa36a7"
      },
      "additionalContracts": [],
      "isFixedGasLimit": false
    },
    {
      "hash": "0xbc1c53a04ed8e65c34f08cbdcbf313b6f330a488b7f0e48105e1da847764d8a1",
      "transactionType": "CALL",
      "contractName": "SimplePaymentProcessor",
      "contractAddress": "0xd4a9e5ac9f54beccd7c12ca6bd7bd026bbf0058d",
      "function": "acceptPayment(uint216)",
      "arguments": [
        "92278742405402137289771376628699437287373317449751106780284224886"
      ],
      "transaction": {
        "from": "0x0f447989b14a3f0bbf08808020ec1a6de0b8cbc4",
        "to": "0xd4a9e5ac9f54beccd7c12ca6bd7bd026bbf0058d",
        "gas": "0x1f2f3",
        "value": "0x0",
        "input": "0x567946640000000000e05133cf3ecf0b4fe3e60b802c106ef8433d0ea1e9b1b14abe8576",
        "nonce": "0x460",
        "chainId": "0xaa36a7"
      },
      "additionalContracts": [],
      "isFixedGasLimit": false
    },
    {
      "hash": "0xaa79d1fe5906e4f1a129780a94d8ac73fe4cf1f2f9fa51ed8c9bba5e5767fba0",
      "transactionType": "CALL",
      "contractName": "SimplePaymentProcessor",
      "contractAddress": "0xd4a9e5ac9f54beccd7c12ca6bd7bd026bbf0058d",
      "function": "acceptPayment(uint216)",
      "arguments": [
        "47029270282833829833935198255902194730101344540064772517875669124"
      ],
      "transaction": {
        "from": "0x0f447989b14a3f0bbf08808020ec1a6de0b8cbc4",
        "to": "0xd4a9e5ac9f54beccd7c12ca6bd7bd026bbf0058d",
        "gas": "0x1f2f3",
        "value": "0x0",
        "input": "0x56794664000000000072526301e541df85cf666bb7d449243aefcd9e7e044f39da1fd884",
        "nonce": "0x461",
        "chainId": "0xaa36a7"
      },
      "additionalContracts": [],
      "isFixedGasLimit": false
    },
    {
      "hash": "0x46bba4d9429a8b98a92c77406ccf830893d79a7a669fc21a4e45d8de177dddd2",
      "transactionType": "CALL",
      "contractName": "SimplePaymentProcessor",
      "contractAddress": "0xd4a9e5ac9f54beccd7c12ca6bd7bd026bbf0058d",
      "function": "acceptPayment(uint216)",
      "arguments": [
        "17970160275834625312220240233755932110735722352155746299758771463"
      ],
      "transaction": {
        "from": "0x0f447989b14a3f0bbf08808020ec1a6de0b8cbc4",
        "to": "0xd4a9e5ac9f54beccd7c12ca6bd7bd026bbf0058d",
        "gas": "0x255f3",
        "value": "0x0",
        "input": "0x5679466400000000002baedbb29daf6c411b66dcf43df8c556f468a8b6c08ecf2ff3fd07",
        "nonce": "0x462",
        "chainId": "0xaa36a7"
      },
      "additionalContracts": [],
      "isFixedGasLimit": false
    },
    {
      "hash": "0xe31ba5c651ec0ad4ee2476ffb279743d991b617314e874e4ce3197decc09d08d",
      "transactionType": "CALL",
      "contractName": "SimplePaymentProcessor",
      "contractAddress": "0xd4a9e5ac9f54beccd7c12ca6bd7bd026bbf0058d",
      "function": "acceptPayment(uint216)",
      "arguments": [
        "74088599095282605257539181422191389348220403092827603990435217244"
      ],
      "transaction": {
        "from": "0x0f447989b14a3f0bbf08808020ec1a6de0b8cbc4",
        "to": "0xd4a9e5ac9f54beccd7c12ca6bd7bd026bbf0058d",
        "gas": "0x1a211",
        "value": "0x0",
        "input": "0x567946640000000000b41972cae6b7ebcb88f70b5884947c2c79b53c36925dca62663f5c",
        "nonce": "0x463",
        "chainId": "0xaa36a7"
      },
      "additionalContracts": [],
      "isFixedGasLimit": false
    },
    {
      "hash": "0xea56faea36ab64338f3aa72325300853f443d1487f685c2d0d5687e345f505ac",
      "transactionType": "CALL",
      "contractName": "SimplePaymentProcessor",
      "contractAddress": "0xd4a9e5ac9f54beccd7c12ca6bd7bd026bbf0058d",
      "function": "acceptPayment(uint216)",
      "arguments": [
        "45583694865774477444665363302960286947162283901300708125657496879"
      ],
      "transaction": {
        "from": "0x0f447989b14a3f0bbf08808020ec1a6de0b8cbc4",
        "to": "0xd4a9e5ac9f54beccd7c12ca6bd7bd026bbf0058d",
        "gas": "0x1a211",
        "value": "0x0",
        "input": "0x5679466400000000006ececd8e98d4d40db9698e024cf031f524950a6da4c5bd4ab77d2f",
        "nonce": "0x464",
        "chainId": "0xaa36a7"
      },
      "additionalContracts": [],
      "isFixedGasLimit": false
    },
    {
      "hash": "0xed6ee6062e3b536774bd743e2f9881e5e833e9878ec7bb3fb3be7938a3722dc1",
      "transactionType": "CALL",
      "contractName": "SimplePaymentProcessor",
      "contractAddress": "0xd4a9e5ac9f54beccd7c12ca6bd7bd026bbf0058d",
      "function": "acceptPayment(uint216)",
      "arguments": [
        "39622180944038083315929772503714869287146340565955995870099762333"
      ],
      "transaction": {
        "from": "0x0f447989b14a3f0bbf08808020ec1a6de0b8cbc4",
        "to": "0xd4a9e5ac9f54beccd7c12ca6bd7bd026bbf0058d",
        "gas": "0x1a211",
        "value": "0x0",
        "input": "0x5679466400000000006050f198a99077703f011474f3a446e84b899d15f736c70a3d6c9d",
        "nonce": "0x465",
        "chainId": "0xaa36a7"
      },
      "additionalContracts": [],
      "isFixedGasLimit": false
    },
    {
      "hash": "0xc300f8ba91eb0105c5c3a10213af00841aff6fd079bdc49373629c7505e512d9",
      "transactionType": "CALL",
      "contractName": "SimplePaymentProcessor",
      "contractAddress": "0xd4a9e5ac9f54beccd7c12ca6bd7bd026bbf0058d",
      "function": "acceptPayment(uint216)",
      "arguments": [
        "70348603593915727802534988066553134565844178717523831372380413046"
      ],
      "transaction": {
        "from": "0x0f447989b14a3f0bbf08808020ec1a6de0b8cbc4",
        "to": "0xd4a9e5ac9f54beccd7c12ca6bd7bd026bbf0058d",
        "gas": "0x1f2f3",
        "value": "0x0",
        "input": "0x567946640000000000ab020b226e22f683c2b55870e1c84f6f088463bd5b15ce8b449c76",
        "nonce": "0x466",
        "chainId": "0xaa36a7"
      },
      "additionalContracts": [],
      "isFixedGasLimit": false
    },
    {
      "hash": "0xc1a6b6b96e97de724c5bf33051f0f66fbad1c2bb0ea705a79aff68207c0a4cd0",
      "transactionType": "CALL",
      "contractName": "SimplePaymentProcessor",
      "contractAddress": "0xd4a9e5ac9f54beccd7c12ca6bd7bd026bbf0058d",
      "function": "acceptPayment(uint216)",
      "arguments": [
        "33997816043371477423408021447059576703735967035704081621299038747"
      ],
      "transaction": {
        "from": "0x0f447989b14a3f0bbf08808020ec1a6de0b8cbc4",
        "to": "0xd4a9e5ac9f54beccd7c12ca6bd7bd026bbf0058d",
        "gas": "0x255f3",
        "value": "0x0",
        "input": "0x56794664000000000052a4e492d001909cfb0265f85ddddb76720feff62d2ccd3a750a1b",
        "nonce": "0x467",
        "chainId": "0xaa36a7"
      },
      "additionalContracts": [],
      "isFixedGasLimit": false
    },
    {
      "hash": "0xab597aa69a9247ca46d9690b3f38850e2622d35b48455017ef443b52d15fd348",
      "transactionType": "CALL",
      "contractName": "SimplePaymentProcessor",
      "contractAddress": "0xd4a9e5ac9f54beccd7c12ca6bd7bd026bbf0058d",
      "function": "acceptPayment(uint216)",
      "arguments": [
        "92179571828930929515597494822445630420445679492652256749813863574"
      ],
      "transaction": {
        "from": "0x0f447989b14a3f0bbf08808020ec1a6de0b8cbc4",
        "to": "0xd4a9e5ac9f54beccd7c12ca6bd7bd026bbf0058d",
        "gas": "0x1a211",
        "value": "0x0",
        "input": "0x567946640000000000e0137d06759f4cf598d44f66d922af9947fc22e418e95f0e919496",
        "nonce": "0x468",
        "chainId": "0xaa36a7"
      },
      "additionalContracts": [],
      "isFixedGasLimit": false
    },
    {
      "hash": "0x861b8a49add7f8f565713b32c495d7a02f413ec72340ddd9b4223ce272efbf2a",
      "transactionType": "CALL",
      "contractName": "SimplePaymentProcessor",
      "contractAddress": "0xd4a9e5ac9f54beccd7c12ca6bd7bd026bbf0058d",
      "function": "acceptPayment(uint216)",
      "arguments": [
        "44216617420595044357995422853242682182487910850054189333750423770"
      ],
      "transaction": {
        "from": "0x0f447989b14a3f0bbf08808020ec1a6de0b8cbc4",
        "to": "0xd4a9e5ac9f54beccd7c12ca6bd7bd026bbf0058d",
        "gas": "0x1f2f3",
        "value": "0x0",
        "input": "0x5679466400000000006b7c118e17063dcab2ad960c514bca064e7d1dc647a2f5529720da",
        "nonce": "0x469",
        "chainId": "0xaa36a7"
      },
      "additionalContracts": [],
      "isFixedGasLimit": false
    },
    {
      "hash": "0x99110478181bb4171ecc572bd3d23a5686131cffd142a1a9800f4f0ff22752dd",
      "transactionType": "CALL",
      "contractName": "SimplePaymentProcessor",
      "contractAddress": "0xd4a9e5ac9f54beccd7c12ca6bd7bd026bbf0058d",
      "function": "acceptPayment(uint216)",
      "arguments": [
        "65956172466893487985045338535936442213850599951925351860535155638"
      ],
      "transaction": {
        "from": "0x0f447989b14a3f0bbf08808020ec1a6de0b8cbc4",
        "to": "0xd4a9e5ac9f54beccd7c12ca6bd7bd026bbf0058d",
        "gas": "0x1f2f3",
        "value": "0x0",
        "input": "0x567946640000000000a054a07c107b6e1162a954d76c78f4166fdca1e745e81c224ddbb6",
        "nonce": "0x46a",
        "chainId": "0xaa36a7"
      },
      "additionalContracts": [],
      "isFixedGasLimit": false
    },
    {
      "hash": "0x17f64eeb0d88444aa8c6bb754298d7ceb90d9941b97c4f34b52ff60d0cb2c176",
      "transactionType": "CALL",
      "contractName": "SimplePaymentProcessor",
      "contractAddress": "0xd4a9e5ac9f54beccd7c12ca6bd7bd026bbf0058d",
      "function": "acceptPayment(uint216)",
      "arguments": [
        "29990182618608277817203582034922288524028393404928259537174495805"
      ],
      "transaction": {
        "from": "0x0f447989b14a3f0bbf08808020ec1a6de0b8cbc4",
        "to": "0xd4a9e5ac9f54beccd7c12ca6bd7bd026bbf0058d",
        "gas": "0x1f2f3",
        "value": "0x0",
        "input": "0x56794664000000000048e6efbbfbac8efbb274a64bb5e750a5bf494545fb92bcee17823d",
        "nonce": "0x46b",
        "chainId": "0xaa36a7"
      },
      "additionalContracts": [],
      "isFixedGasLimit": false
    },
    {
      "hash": "0xcca13cf541bc7c6744532495c9bf62ed5383138430523d3583bc67175e14a9f9",
      "transactionType": "CALL",
      "contractName": "SimplePaymentProcessor",
      "contractAddress": "0xd4a9e5ac9f54beccd7c12ca6bd7bd026bbf0058d",
      "function": "acceptPayment(uint216)",
      "arguments": [
        "86197966730572525327911308975025052098628729132211129770631638421"
      ],
      "transaction": {
        "from": "0x0f447989b14a3f0bbf08808020ec1a6de0b8cbc4",
        "to": "0xd4a9e5ac9f54beccd7c12ca6bd7bd026bbf0058d",
        "gas": "0x1a211",
        "value": "0x0",
        "input": "0x567946640000000000d189205aff0766a9f37be25ae1999c587ae1360796c4406d322d95",
        "nonce": "0x46c",
        "chainId": "0xaa36a7"
      },
      "additionalContracts": [],
      "isFixedGasLimit": false
    },
    {
      "hash": "0x6fa901f6402894ad917f15df7127ed327779125ccb0ffc3e041c68c76e4a07e5",
      "transactionType": "CALL",
      "contractName": "SimplePaymentProcessor",
      "contractAddress": "0xd4a9e5ac9f54beccd7c12ca6bd7bd026bbf0058d",
      "function": "acceptPayment(uint216)",
      "arguments": [
        "61154062745713992933563049443944775779172452044675762093105825680"
      ],
      "transaction": {
        "from": "0x0f447989b14a3f0bbf08808020ec1a6de0b8cbc4",
        "to": "0xd4a9e5ac9f54beccd7c12ca6bd7bd026bbf0058d",
        "gas": "0x1f2f3",
        "value": "0x0",
        "input": "0x56794664000000000094a84444f16433d0283dd1e3bc77a462bcb64b32663b7ed3ef4790",
        "nonce": "0x46d",
        "chainId": "0xaa36a7"
      },
      "additionalContracts": [],
      "isFixedGasLimit": false
    },
    {
      "hash": "0xc0a346bb45ba5b9399edf8ef69735e4b9c2b2b3ad24a9e39273dd6d32d63e8a8",
      "transactionType": "CALL",
      "contractName": "SimplePaymentProcessor",
      "contractAddress": "0xd4a9e5ac9f54beccd7c12ca6bd7bd026bbf0058d",
      "function": "acceptPayment(uint216)",
      "arguments": [
        "41062648758524349607445890705600400930276607313423399860248645026"
      ],
      "transaction": {
        "from": "0x0f447989b14a3f0bbf08808020ec1a6de0b8cbc4",
        "to": "0xd4a9e5ac9f54beccd7c12ca6bd7bd026bbf0058d",
        "gas": "0x255f3",
        "value": "0x0",
        "input": "0x56794664000000000063d1595bd2f6fda1340e2ba680a2431f54226ddf8204b8e6b60da2",
        "nonce": "0x46e",
        "chainId": "0xaa36a7"
      },
      "additionalContracts": [],
      "isFixedGasLimit": false
    },
    {
      "hash": "0xcd7fb05b12f18a579528b0eadfa916cad85f3a51cc5ade936e3e0342cd334492",
      "transactionType": "CALL",
      "contractName": "SimplePaymentProcessor",
      "contractAddress": "0xd4a9e5ac9f54beccd7c12ca6bd7bd026bbf0058d",
      "function": "acceptPayment(uint216)",
      "arguments": [
        "26986084880865595884218852421144991173981125552793352705812868027"
      ],
      "transaction": {
        "from": "0x0f447989b14a3f0bbf08808020ec1a6de0b8cbc4",
        "to": "0xd4a9e5ac9f54beccd7c12ca6bd7bd026bbf0058d",
        "gas": "0x29b98",
        "value": "0x0",
        "input": "0x56794664000000000041997b5a8b0a1e53b67aef1e0730369259b2c23684a19444522bbb",
        "nonce": "0x46f",
        "chainId": "0xaa36a7"
      },
      "additionalContracts": [],
      "isFixedGasLimit": false
    },
    {
      "hash": "0x032201cb230087ef24b286f9776a7e488f8954815bf89f40db966b461caeb143",
      "transactionType": "CALL",
      "contractName": "SimplePaymentProcessor",
      "contractAddress": "0xd4a9e5ac9f54beccd7c12ca6bd7bd026bbf0058d",
      "function": "acceptPayment(uint216)",
      "arguments": [
        "38788644748857215900071111178045147683888586054380390776555814321"
      ],
      "transaction": {
        "from": "0x0f447989b14a3f0bbf08808020ec1a6de0b8cbc4",
        "to": "0xd4a9e5ac9f54beccd7c12ca6bd7bd026bbf0058d",
        "gas": "0x1f2f3",
        "value": "0x0",
        "input": "0x5679466400000000005e4a3b9e8bb8860e10598bde13d04bcd8a399ae7012be471c9bdb1",
        "nonce": "0x470",
        "chainId": "0xaa36a7"
      },
      "additionalContracts": [],
      "isFixedGasLimit": false
    },
    {
      "hash": "0x939a1a5c47c7ce1ecd648fbdf58d5c65e5aa137564949c9522cea33373afd6ef",
      "transactionType": "CALL",
      "contractName": "SimplePaymentProcessor",
      "contractAddress": "0xd4a9e5ac9f54beccd7c12ca6bd7bd026bbf0058d",
      "function": "acceptPayment(uint216)",
      "arguments": [
        "78078867621504679642664253646565261662540740671774752242580651180"
      ],
      "transaction": {
        "from": "0x0f447989b14a3f0bbf08808020ec1a6de0b8cbc4",
        "to": "0xd4a9e5ac9f54beccd7c12ca6bd7bd026bbf0058d",
        "gas": "0x1a211",
        "value": "0x0",
        "input": "0x567946640000000000bdcc993e6afde0623df5e4ed2e475a55eb6fec766f886f6190fcac",
        "nonce": "0x471",
        "chainId": "0xaa36a7"
      },
      "additionalContracts": [],
      "isFixedGasLimit": false
    },
    {
      "hash": "0x2fbfda77a1c8682d84899bb9d5a4fc70888db399fe316c81648e9c160c655cc7",
      "transactionType": "CALL",
      "contractName": "SimplePaymentProcessor",
      "contractAddress": "0xd4a9e5ac9f54beccd7c12ca6bd7bd026bbf0058d",
      "function": "acceptPayment(uint216)",
      "arguments": [
        "8390756084650157907806425640879626000056396971411474361208742223"
      ],
      "transaction": {
        "from": "0x0f447989b14a3f0bbf08808020ec1a6de0b8cbc4",
        "to": "0xd4a9e5ac9f54beccd7c12ca6bd7bd026bbf0058d",
        "gas": "0x29b98",
        "value": "0x0",
        "input": "0x567946640000000000146594908e7c4e517a2e11dac66cecdbbb42e39afdcfe25dd3214f",
        "nonce": "0x472",
        "chainId": "0xaa36a7"
      },
      "additionalContracts": [],
      "isFixedGasLimit": false
    },
    {
      "hash": "0xe562b68f06844c64ed315b111cbe0ee93c915fcc81355138c1557df06f3a42ed",
      "transactionType": "CALL",
      "contractName": "SimplePaymentProcessor",
      "contractAddress": "0xd4a9e5ac9f54beccd7c12ca6bd7bd026bbf0058d",
      "function": "acceptPayment(uint216)",
      "arguments": [
        "18239469157830634994570942279528999043539366061034422275698866950"
      ],
      "transaction": {
        "from": "0x0f447989b14a3f0bbf08808020ec1a6de0b8cbc4",
        "to": "0xd4a9e5ac9f54beccd7c12ca6bd7bd026bbf0058d",
        "gas": "0x255f3",
        "value": "0x0",
        "input": "0x5679466400000000002c567313ef38bdb322ca06bc6b24ee2ffe6e3b7933065079f83b06",
        "nonce": "0x473",
        "chainId": "0xaa36a7"
      },
      "additionalContracts": [],
      "isFixedGasLimit": false
    },
    {
      "hash": "0xb6f7b1c2cd622abc3fd9499448a3b62be0435f4013a733a5f331adba58346b34",
      "transactionType": "CALL",
      "contractName": "SimplePaymentProcessor",
      "contractAddress": "0xd4a9e5ac9f54beccd7c12ca6bd7bd026bbf0058d",
      "function": "acceptPayment(uint216)",
      "arguments": [
        "56731721519286513141041887963945240273551621032096134715212749871"
      ],
      "transaction": {
        "from": "0x0f447989b14a3f0bbf08808020ec1a6de0b8cbc4",
        "to": "0xd4a9e5ac9f54beccd7c12ca6bd7bd026bbf0058d",
        "gas": "0x1f2f3",
        "value": "0x0",
        "input": "0x56794664000000000089e83caa6b46fe929a0589f2fd4f65ce5b1b4980398c148476dc2f",
        "nonce": "0x474",
        "chainId": "0xaa36a7"
      },
      "additionalContracts": [],
      "isFixedGasLimit": false
    },
    {
      "hash": "0x402ba4e0935067004acd6f88f3da4751a83e1506246d738d7424d7b395ca9cd2",
      "transactionType": "CALL",
      "contractName": "SimplePaymentProcessor",
      "contractAddress": "0xd4a9e5ac9f54beccd7c12ca6bd7bd026bbf0058d",
      "function": "acceptPayment(uint216)",
      "arguments": [
        "837096811555691448954605808806641775615999176788801609565545081"
      ],
      "transaction": {
        "from": "0x0f447989b14a3f0bbf08808020ec1a6de0b8cbc4",
        "to": "0xd4a9e5ac9f54beccd7c12ca6bd7bd026bbf0058d",
        "gas": "0x29b98",
        "value": "0x0",
        "input": "0x5679466400000000000208ed374758bfbd893038c9474eee72f26e7affee1cd3ae892279",
        "nonce": "0x475",
        "chainId": "0xaa36a7"
      },
      "additionalContracts": [],
      "isFixedGasLimit": false
    },
    {
      "hash": "0x82ad1f4a29902af3cffe0c972bff0bb3188d81582ef6139a6466c61c610fd93f",
      "transactionType": "CALL",
      "contractName": "SimplePaymentProcessor",
      "contractAddress": "0xd4a9e5ac9f54beccd7c12ca6bd7bd026bbf0058d",
      "function": "acceptPayment(uint216)",
      "arguments": [
        "102130764900017017439009143605602522412436513283992583215653524473"
      ],
      "transaction": {
        "from": "0x0f447989b14a3f0bbf08808020ec1a6de0b8cbc4",
        "to": "0xd4a9e5ac9f54beccd7c12ca6bd7bd026bbf0058d",
        "gas": "0x1f2f3",
        "value": "0x0",
        "input": "0x567946640000000000f844218b43802caa2562c36b167262552db599c64ac980393713f9",
        "nonce": "0x476",
        "chainId": "0xaa36a7"
      },
      "additionalContracts": [],
      "isFixedGasLimit": false
    },
    {
      "hash": "0xbab35f1290347bbcba31c200381bae08624529b10403e488d6004e0e1de3dc65",
      "transactionType": "CALL",
      "contractName": "SimplePaymentProcessor",
      "contractAddress": "0xd4a9e5ac9f54beccd7c12ca6bd7bd026bbf0058d",
      "function": "acceptPayment(uint216)",
      "arguments": [
        "37875572893708235504746074399989109221380678094228980489483959969"
      ],
      "transaction": {
        "from": "0x0f447989b14a3f0bbf08808020ec1a6de0b8cbc4",
        "to": "0xd4a9e5ac9f54beccd7c12ca6bd7bd026bbf0058d",
        "gas": "0x255f3",
        "value": "0x0",
        "input": "0x5679466400000000005c1206e1721bea727afd9853b521c72de3ec7993600b2c56a7bea1",
        "nonce": "0x477",
        "chainId": "0xaa36a7"
      },
      "additionalContracts": [],
      "isFixedGasLimit": false
    },
    {
      "hash": null,
      "transactionType": "CALL",
      "contractName": "SimplePaymentProcessor",
      "contractAddress": "0xd4a9e5ac9f54beccd7c12ca6bd7bd026bbf0058d",
      "function": "acceptPayment(uint216)",
      "arguments": [
        "63613965283927799569083742786573708196988736966286746981467001116"
      ],
      "transaction": {
        "from": "0x0f447989b14a3f0bbf08808020ec1a6de0b8cbc4",
        "to": "0xd4a9e5ac9f54beccd7c12ca6bd7bd026bbf0058d",
        "gas": "0x1f2f3",
        "value": "0x0",
        "input": "0x5679466400000000009aa3115a56e848940da3169d9aacd5d421385862e434bbee19911c",
        "nonce": "0x478",
        "chainId": "0xaa36a7"
      },
      "additionalContracts": [],
      "isFixedGasLimit": false
    },
    {
      "hash": null,
      "transactionType": "CALL",
      "contractName": "SimplePaymentProcessor",
      "contractAddress": "0xd4a9e5ac9f54beccd7c12ca6bd7bd026bbf0058d",
      "function": "acceptPayment(uint216)",
      "arguments": [
        "70110991704767402457750732373298256086862826852412779774053277396"
      ],
      "transaction": {
        "from": "0x0f447989b14a3f0bbf08808020ec1a6de0b8cbc4",
        "to": "0xd4a9e5ac9f54beccd7c12ca6bd7bd026bbf0058d",
        "gas": "0x1ba98",
        "value": "0x0",
        "input": "0x567946640000000000aa6e2d606b14faf04d52f3cd00d930250e368082fdec2bf1f95ed4",
        "nonce": "0x479",
        "chainId": "0xaa36a7"
      },
      "additionalContracts": [],
      "isFixedGasLimit": false
    },
    {
      "hash": null,
      "transactionType": "CALL",
      "contractName": "SimplePaymentProcessor",
      "contractAddress": "0xd4a9e5ac9f54beccd7c12ca6bd7bd026bbf0058d",
      "function": "acceptPayment(uint216)",
      "arguments": [
        "60952337126333174556455743503989416366275764297334821669518289073"
      ],
      "transaction": {
        "from": "0x0f447989b14a3f0bbf08808020ec1a6de0b8cbc4",
        "to": "0xd4a9e5ac9f54beccd7c12ca6bd7bd026bbf0058d",
        "gas": "0x1f2f3",
        "value": "0x0",
        "input": "0x567946640000000000942abb8628a9a927b12b71afdbdffa84531eb7331a360c0e41a8b1",
        "nonce": "0x47a",
        "chainId": "0xaa36a7"
      },
      "additionalContracts": [],
      "isFixedGasLimit": false
    },
    {
      "hash": null,
      "transactionType": "CALL",
      "contractName": "SimplePaymentProcessor",
      "contractAddress": "0xd4a9e5ac9f54beccd7c12ca6bd7bd026bbf0058d",
      "function": "acceptPayment(uint216)",
      "arguments": [
        "35207983798075560682463190605640203285003184443629648041896737835"
      ],
      "transaction": {
        "from": "0x0f447989b14a3f0bbf08808020ec1a6de0b8cbc4",
        "to": "0xd4a9e5ac9f54beccd7c12ca6bd7bd026bbf0058d",
        "gas": "0x255f3",
        "value": "0x0",
        "input": "0x5679466400000000005595fb6b6ae225b6d64178d878dbbd2d8951c8811c28d176d27c2b",
        "nonce": "0x47b",
        "chainId": "0xaa36a7"
      },
      "additionalContracts": [],
      "isFixedGasLimit": false
    },
    {
      "hash": null,
      "transactionType": "CALL",
      "contractName": "SimplePaymentProcessor",
      "contractAddress": "0xd4a9e5ac9f54beccd7c12ca6bd7bd026bbf0058d",
      "function": "acceptPayment(uint216)",
      "arguments": [
        "34234078515456307820132695305700820908273711359246620724555157185"
      ],
      "transaction": {
        "from": "0x0f447989b14a3f0bbf08808020ec1a6de0b8cbc4",
        "to": "0xd4a9e5ac9f54beccd7c12ca6bd7bd026bbf0058d",
        "gas": "0x255f3",
        "value": "0x0",
        "input": "0x5679466400000000005337eb5b578d0ac5940d6075225217fa934697fe67cd67a5f80ec1",
        "nonce": "0x47c",
        "chainId": "0xaa36a7"
      },
      "additionalContracts": [],
      "isFixedGasLimit": false
    },
    {
      "hash": null,
      "transactionType": "CALL",
      "contractName": "SimplePaymentProcessor",
      "contractAddress": "0xd4a9e5ac9f54beccd7c12ca6bd7bd026bbf0058d",
      "function": "acceptPayment(uint216)",
      "arguments": [
        "95854396665045916752851187716510847734026841935597479580508299366"
      ],
      "transaction": {
        "from": "0x0f447989b14a3f0bbf08808020ec1a6de0b8cbc4",
        "to": "0xd4a9e5ac9f54beccd7c12ca6bd7bd026bbf0058d",
        "gas": "0x1a211",
        "value": "0x0",
        "input": "0x567946640000000000e9025665b929c65d6499b8f439eef12dc1519f9c9ed8ad509b2066",
        "nonce": "0x47d",
        "chainId": "0xaa36a7"
      },
      "additionalContracts": [],
      "isFixedGasLimit": false
    },
    {
      "hash": null,
      "transactionType": "CALL",
      "contractName": "SimplePaymentProcessor",
      "contractAddress": "0xd4a9e5ac9f54beccd7c12ca6bd7bd026bbf0058d",
      "function": "acceptPayment(uint216)",
      "arguments": [
        "46762742632294936563775553204859033194223284030875977777726302502"
      ],
      "transaction": {
        "from": "0x0f447989b14a3f0bbf08808020ec1a6de0b8cbc4",
        "to": "0xd4a9e5ac9f54beccd7c12ca6bd7bd026bbf0058d",
        "gas": "0x1f2f3",
        "value": "0x0",
        "input": "0x56794664000000000071ac86b3f701bbe97f4edfc314340849de01bd4348d7ddb6bb2926",
        "nonce": "0x47e",
        "chainId": "0xaa36a7"
      },
      "additionalContracts": [],
      "isFixedGasLimit": false
    },
    {
      "hash": null,
      "transactionType": "CALL",
      "contractName": "SimplePaymentProcessor",
      "contractAddress": "0xd4a9e5ac9f54beccd7c12ca6bd7bd026bbf0058d",
      "function": "acceptPayment(uint216)",
      "arguments": [
        "97673239749373177893927516457879243204797991910978837143012994721"
      ],
      "transaction": {
        "from": "0x0f447989b14a3f0bbf08808020ec1a6de0b8cbc4",
        "to": "0xd4a9e5ac9f54beccd7c12ca6bd7bd026bbf0058d",
        "gas": "0x1a211",
        "value": "0x0",
        "input": "0x567946640000000000ed6e34d160c2ec04929f898eab3f284ebdde103e39515fba176ea1",
        "nonce": "0x47f",
        "chainId": "0xaa36a7"
      },
      "additionalContracts": [],
      "isFixedGasLimit": false
    },
    {
      "hash": null,
      "transactionType": "CALL",
      "contractName": "SimplePaymentProcessor",
      "contractAddress": "0xd4a9e5ac9f54beccd7c12ca6bd7bd026bbf0058d",
      "function": "acceptPayment(uint216)",
      "arguments": [
        "81353413492558984712572556961056008571721815796269473293758248214"
      ],
      "transaction": {
        "from": "0x0f447989b14a3f0bbf08808020ec1a6de0b8cbc4",
        "to": "0xd4a9e5ac9f54beccd7c12ca6bd7bd026bbf0058d",
        "gas": "0x1a211",
        "value": "0x0",
        "input": "0x567946640000000000c5c25a7f6fe1eeb56dad8f59ee78db60f92032059c9fc2923a3516",
        "nonce": "0x480",
        "chainId": "0xaa36a7"
      },
      "additionalContracts": [],
      "isFixedGasLimit": false
    },
    {
      "hash": null,
      "transactionType": "CALL",
      "contractName": "SimplePaymentProcessor",
      "contractAddress": "0xd4a9e5ac9f54beccd7c12ca6bd7bd026bbf0058d",
      "function": "acceptPayment(uint216)",
      "arguments": [
        "58398700095569861610227540771976682791225837806958423704879598394"
      ],
      "transaction": {
        "from": "0x0f447989b14a3f0bbf08808020ec1a6de0b8cbc4",
        "to": "0xd4a9e5ac9f54beccd7c12ca6bd7bd026bbf0058d",
        "gas": "0x1f2f3",
        "value": "0x0",
        "input": "0x5679466400000000008df599ac9e48dbfdbcd2ef5f0e56a11744035a231a9343d8a18b3a",
        "nonce": "0x481",
        "chainId": "0xaa36a7"
      },
      "additionalContracts": [],
      "isFixedGasLimit": false
    },
    {
      "hash": null,
      "transactionType": "CALL",
      "contractName": "SimplePaymentProcessor",
      "contractAddress": "0xd4a9e5ac9f54beccd7c12ca6bd7bd026bbf0058d",
      "function": "acceptPayment(uint216)",
      "arguments": [
        "60935927213002226601365886954638791788500960515100633412108959954"
      ],
      "transaction": {
        "from": "0x0f447989b14a3f0bbf08808020ec1a6de0b8cbc4",
        "to": "0xd4a9e5ac9f54beccd7c12ca6bd7bd026bbf0058d",
        "gas": "0x1f2f3",
        "value": "0x0",
        "input": "0x56794664000000000094208546276b08168d889b0a5693e96973bf24ae8d88eb077640d2",
        "nonce": "0x482",
        "chainId": "0xaa36a7"
      },
      "additionalContracts": [],
      "isFixedGasLimit": false
    },
    {
      "hash": null,
      "transactionType": "CALL",
      "contractName": "SimplePaymentProcessor",
      "contractAddress": "0xd4a9e5ac9f54beccd7c12ca6bd7bd026bbf0058d",
      "function": "acceptPayment(uint216)",
      "arguments": [
        "648421601523862015806655135625776044321067958933583463600841612"
      ],
      "transaction": {
        "from": "0x0f447989b14a3f0bbf08808020ec1a6de0b8cbc4",
        "to": "0xd4a9e5ac9f54beccd7c12ca6bd7bd026bbf0058d",
        "gas": "0x2e13e",
        "value": "0x0",
        "input": "0x5679466400000000000193838555b671386db5fa7f82eb108ff69a017898cd272933638c",
        "nonce": "0x483",
        "chainId": "0xaa36a7"
      },
      "additionalContracts": [],
      "isFixedGasLimit": false
    },
    {
      "hash": null,
      "transactionType": "CALL",
      "contractName": "SimplePaymentProcessor",
      "contractAddress": "0xd4a9e5ac9f54beccd7c12ca6bd7bd026bbf0058d",
      "function": "acceptPayment(uint216)",
      "arguments": [
        "46517248784344882045256372832603246930075978430931361931149057290"
      ],
      "transaction": {
        "from": "0x0f447989b14a3f0bbf08808020ec1a6de0b8cbc4",
        "to": "0xd4a9e5ac9f54beccd7c12ca6bd7bd026bbf0058d",
        "gas": "0x1f2f3",
        "value": "0x0",
        "input": "0x5679466400000000007113c146d26016c93ae366e651ad3acbd97276db6258f60bae1d0a",
        "nonce": "0x484",
        "chainId": "0xaa36a7"
      },
      "additionalContracts": [],
      "isFixedGasLimit": false
    },
    {
      "hash": null,
      "transactionType": "CALL",
      "contractName": "SimplePaymentProcessor",
      "contractAddress": "0xd4a9e5ac9f54beccd7c12ca6bd7bd026bbf0058d",
      "function": "acceptPayment(uint216)",
      "arguments": [
        "13073866809631531294179423402102186160101808317699938094842303861"
      ],
      "transaction": {
        "from": "0x0f447989b14a3f0bbf08808020ec1a6de0b8cbc4",
        "to": "0xd4a9e5ac9f54beccd7c12ca6bd7bd026bbf0058d",
        "gas": "0x1f2f3",
        "value": "0x0",
        "input": "0x5679466400000000001fc7e3256b0ccc6d6818e2086f535e5c57d2b3b1a6659a18aad575",
        "nonce": "0x485",
        "chainId": "0xaa36a7"
      },
      "additionalContracts": [],
      "isFixedGasLimit": false
    },
    {
      "hash": null,
      "transactionType": "CALL",
      "contractName": "SimplePaymentProcessor",
      "contractAddress": "0xd4a9e5ac9f54beccd7c12ca6bd7bd026bbf0058d",
      "function": "acceptPayment(uint216)",
      "arguments": [
        "72729901114467559260539293350792183457041808499562633734202343828"
      ],
      "transaction": {
        "from": "0x0f447989b14a3f0bbf08808020ec1a6de0b8cbc4",
        "to": "0xd4a9e5ac9f54beccd7c12ca6bd7bd026bbf0058d",
        "gas": "0x1f2f3",
        "value": "0x0",
        "input": "0x567946640000000000b0cbedb75eebf16c464a05f44caf63d62ee86a1f6ef5a91bb44194",
        "nonce": "0x486",
        "chainId": "0xaa36a7"
      },
      "additionalContracts": [],
      "isFixedGasLimit": false
    },
    {
      "hash": null,
      "transactionType": "CALL",
      "contractName": "SimplePaymentProcessor",
      "contractAddress": "0xd4a9e5ac9f54beccd7c12ca6bd7bd026bbf0058d",
      "function": "acceptPayment(uint216)",
      "arguments": [
        "38767395584777387374949443214649256941114104393532220208060739204"
      ],
      "transaction": {
        "from": "0x0f447989b14a3f0bbf08808020ec1a6de0b8cbc4",
        "to": "0xd4a9e5ac9f54beccd7c12ca6bd7bd026bbf0058d",
        "gas": "0x255f3",
        "value": "0x0",
        "input": "0x5679466400000000005e3d026ea338ffcff46f1f03243e57f2c045f89734d8d07f42ae84",
        "nonce": "0x487",
        "chainId": "0xaa36a7"
      },
      "additionalContracts": [],
      "isFixedGasLimit": false
    },
    {
      "hash": null,
      "transactionType": "CALL",
      "contractName": "SimplePaymentProcessor",
      "contractAddress": "0xd4a9e5ac9f54beccd7c12ca6bd7bd026bbf0058d",
      "function": "acceptPayment(uint216)",
      "arguments": [
        "70209535162140965880583178499013675917292998548893655585247503205"
      ],
      "transaction": {
        "from": "0x0f447989b14a3f0bbf08808020ec1a6de0b8cbc4",
        "to": "0xd4a9e5ac9f54beccd7c12ca6bd7bd026bbf0058d",
        "gas": "0x1f2f3",
        "value": "0x0",
        "input": "0x567946640000000000aaab80414f6383de4711268cddf84ab668a6277205e788c008a365",
        "nonce": "0x488",
        "chainId": "0xaa36a7"
      },
      "additionalContracts": [],
      "isFixedGasLimit": false
    },
    {
      "hash": null,
      "transactionType": "CALL",
      "contractName": "SimplePaymentProcessor",
      "contractAddress": "0xd4a9e5ac9f54beccd7c12ca6bd7bd026bbf0058d",
      "function": "acceptPayment(uint216)",
      "arguments": [
        "70117877289438479404554901018015636236881494686678236002447550128"
      ],
      "transaction": {
        "from": "0x0f447989b14a3f0bbf08808020ec1a6de0b8cbc4",
        "to": "0xd4a9e5ac9f54beccd7c12ca6bd7bd026bbf0058d",
        "gas": "0x1f2f3",
        "value": "0x0",
        "input": "0x567946640000000000aa727650455a2fbc94961bc8c054cef1791f8c6e6ee265177c66b0",
        "nonce": "0x489",
        "chainId": "0xaa36a7"
      },
      "additionalContracts": [],
      "isFixedGasLimit": false
    },
    {
      "hash": null,
      "transactionType": "CALL",
      "contractName": "SimplePaymentProcessor",
      "contractAddress": "0xd4a9e5ac9f54beccd7c12ca6bd7bd026bbf0058d",
      "function": "acceptPayment(uint216)",
      "arguments": [
        "16538518749940493772757772699654761212940754371727982334963835788"
      ],
      "transaction": {
        "from": "0x0f447989b14a3f0bbf08808020ec1a6de0b8cbc4",
        "to": "0xd4a9e5ac9f54beccd7c12ca6bd7bd026bbf0058d",
        "gas": "0x27670",
        "value": "0x0",
        "input": "0x5679466400000000002833f20b54e70bb81e13895600fa5fcfe37d488c7041c87373638c",
        "nonce": "0x48a",
        "chainId": "0xaa36a7"
      },
      "additionalContracts": [],
      "isFixedGasLimit": false
    },
    {
      "hash": null,
      "transactionType": "CALL",
      "contractName": "SimplePaymentProcessor",
      "contractAddress": "0xd4a9e5ac9f54beccd7c12ca6bd7bd026bbf0058d",
      "function": "acceptPayment(uint216)",
      "arguments": [
        "39870029768473277935112173958679685553493017246850491860462784351"
      ],
      "transaction": {
        "from": "0x0f447989b14a3f0bbf08808020ec1a6de0b8cbc4",
        "to": "0xd4a9e5ac9f54beccd7c12ca6bd7bd026bbf0058d",
        "gas": "0x1f2f3",
        "value": "0x0",
        "input": "0x56794664000000000060eb2e312becb0e551c3ff7a2aa4027b9ebcc7bec0378162f6cf5f",
        "nonce": "0x48b",
        "chainId": "0xaa36a7"
      },
      "additionalContracts": [],
      "isFixedGasLimit": false
    },
    {
      "hash": null,
      "transactionType": "CALL",
      "contractName": "SimplePaymentProcessor",
      "contractAddress": "0xd4a9e5ac9f54beccd7c12ca6bd7bd026bbf0058d",
      "function": "acceptPayment(uint216)",
      "arguments": [
        "96111153200406667545997194709173636200802557268029616261342271022"
      ],
      "transaction": {
        "from": "0x0f447989b14a3f0bbf08808020ec1a6de0b8cbc4",
        "to": "0xd4a9e5ac9f54beccd7c12ca6bd7bd026bbf0058d",
        "gas": "0x1a211",
        "value": "0x0",
        "input": "0x567946640000000000e9a21e12c4f7874e271e5032781a84577244865535037e71b1962e",
        "nonce": "0x48c",
        "chainId": "0xaa36a7"
      },
      "additionalContracts": [],
      "isFixedGasLimit": false
    },
    {
      "hash": null,
      "transactionType": "CALL",
      "contractName": "SimplePaymentProcessor",
      "contractAddress": "0xd4a9e5ac9f54beccd7c12ca6bd7bd026bbf0058d",
      "function": "acceptPayment(uint216)",
      "arguments": [
        "41023475658285954114454644446539508902893769646021979079532581896"
      ],
      "transaction": {
        "from": "0x0f447989b14a3f0bbf08808020ec1a6de0b8cbc4",
        "to": "0xd4a9e5ac9f54beccd7c12ca6bd7bd026bbf0058d",
        "gas": "0x1f2f3",
        "value": "0x0",
        "input": "0x56794664000000000063b8f8b94958e730f971c1d5d0b6eed87c22ffa4d9e8de6dff9408",
        "nonce": "0x48d",
        "chainId": "0xaa36a7"
      },
      "additionalContracts": [],
      "isFixedGasLimit": false
    },
    {
      "hash": null,
      "transactionType": "CALL",
      "contractName": "SimplePaymentProcessor",
      "contractAddress": "0xd4a9e5ac9f54beccd7c12ca6bd7bd026bbf0058d",
      "function": "acceptPayment(uint216)",
      "arguments": [
        "20479655779983372785996643551938233311592345938303793226718092566"
      ],
      "transaction": {
        "from": "0x0f447989b14a3f0bbf08808020ec1a6de0b8cbc4",
        "to": "0xd4a9e5ac9f54beccd7c12ca6bd7bd026bbf0058d",
        "gas": "0x1f2f3",
        "value": "0x0",
        "input": "0x56794664000000000031c8856586b737e0512e7d5e8a93097fd0302b5f09038b45bb9d16",
        "nonce": "0x48e",
        "chainId": "0xaa36a7"
      },
      "additionalContracts": [],
      "isFixedGasLimit": false
    },
    {
      "hash": null,
      "transactionType": "CALL",
      "contractName": "SimplePaymentProcessor",
      "contractAddress": "0xd4a9e5ac9f54beccd7c12ca6bd7bd026bbf0058d",
      "function": "acceptPayment(uint216)",
      "arguments": [
        "29596829946617064408609792336682791614354390670721526168836963890"
      ],
      "transaction": {
        "from": "0x0f447989b14a3f0bbf08808020ec1a6de0b8cbc4",
        "to": "0xd4a9e5ac9f54beccd7c12ca6bd7bd026bbf0058d",
        "gas": "0x1a211",
        "value": "0x0",
        "input": "0x56794664000000000047f22709cecdf8f57b944471db10deb912aac16205a4f85f24fe32",
        "nonce": "0x48f",
        "chainId": "0xaa36a7"
      },
      "additionalContracts": [],
      "isFixedGasLimit": false
    },
    {
      "hash": null,
      "transactionType": "CALL",
      "contractName": "SimplePaymentProcessor",
      "contractAddress": "0xd4a9e5ac9f54beccd7c12ca6bd7bd026bbf0058d",
      "function": "acceptPayment(uint216)",
      "arguments": [
        "3076568989430782479761446869519225659689739094251999112323051504"
      ],
      "transaction": {
        "from": "0x0f447989b14a3f0bbf08808020ec1a6de0b8cbc4",
        "to": "0xd4a9e5ac9f54beccd7c12ca6bd7bd026bbf0058d",
        "gas": "0x29b98",
        "value": "0x0",
        "input": "0x567946640000000000077a8db7948a9acb5b2f34043ee4e3162f2a0c4b851cd46d52aff0",
        "nonce": "0x490",
        "chainId": "0xaa36a7"
      },
      "additionalContracts": [],
      "isFixedGasLimit": false
    },
    {
      "hash": null,
      "transactionType": "CALL",
      "contractName": "SimplePaymentProcessor",
      "contractAddress": "0xd4a9e5ac9f54beccd7c12ca6bd7bd026bbf0058d",
      "function": "acceptPayment(uint216)",
      "arguments": [
        "54501542718683816636513271539554140931279384973077410173732043661"
      ],
      "transaction": {
        "from": "0x0f447989b14a3f0bbf08808020ec1a6de0b8cbc4",
        "to": "0xd4a9e5ac9f54beccd7c12ca6bd7bd026bbf0058d",
        "gas": "0x1ba98",
        "value": "0x0",
        "input": "0x567946640000000000847c64af58105e21a38e12295a416400e9f4a90580c62ee960bb8d",
        "nonce": "0x491",
        "chainId": "0xaa36a7"
      },
      "additionalContracts": [],
      "isFixedGasLimit": false
    },
    {
      "hash": null,
      "transactionType": "CALL",
      "contractName": "SimplePaymentProcessor",
      "contractAddress": "0xd4a9e5ac9f54beccd7c12ca6bd7bd026bbf0058d",
      "function": "acceptPayment(uint216)",
      "arguments": [
        "99657075663630099701466038439915476672566115973017082009272148521"
      ],
      "transaction": {
        "from": "0x0f447989b14a3f0bbf08808020ec1a6de0b8cbc4",
        "to": "0xd4a9e5ac9f54beccd7c12ca6bd7bd026bbf0058d",
        "gas": "0x1a211",
        "value": "0x0",
        "input": "0x567946640000000000f240c01cd8e24f38b6e9d05ca6185ae699bad044f565b565ab6229",
        "nonce": "0x492",
        "chainId": "0xaa36a7"
      },
      "additionalContracts": [],
      "isFixedGasLimit": false
    },
    {
      "hash": null,
      "transactionType": "CALL",
      "contractName": "SimplePaymentProcessor",
      "contractAddress": "0xd4a9e5ac9f54beccd7c12ca6bd7bd026bbf0058d",
      "function": "acceptPayment(uint216)",
      "arguments": [
        "17065076857486495376628896863279272670008448553189020552966097802"
      ],
      "transaction": {
        "from": "0x0f447989b14a3f0bbf08808020ec1a6de0b8cbc4",
        "to": "0xd4a9e5ac9f54beccd7c12ca6bd7bd026bbf0058d",
        "gas": "0x255f3",
        "value": "0x0",
        "input": "0x567946640000000000297b9f9727d4ee0ffe688bda6c3e09be9395fb58709c1969cecb8a",
        "nonce": "0x493",
        "chainId": "0xaa36a7"
      },
      "additionalContracts": [],
      "isFixedGasLimit": false
    },
    {
      "hash": null,
      "transactionType": "CALL",
      "contractName": "SimplePaymentProcessor",
      "contractAddress": "0xd4a9e5ac9f54beccd7c12ca6bd7bd026bbf0058d",
      "function": "acceptPayment(uint216)",
      "arguments": [
        "57127763589388563473380366696537731315117390351607769102927998746"
      ],
      "transaction": {
        "from": "0x0f447989b14a3f0bbf08808020ec1a6de0b8cbc4",
        "to": "0xd4a9e5ac9f54beccd7c12ca6bd7bd026bbf0058d",
        "gas": "0x1a211",
        "value": "0x0",
        "input": "0x5679466400000000008adeb1ceba8f9d2f7e2c309c675b2ba7cbc7c1c70a6c75e4572f1a",
        "nonce": "0x494",
        "chainId": "0xaa36a7"
      },
      "additionalContracts": [],
      "isFixedGasLimit": false
    },
    {
      "hash": null,
      "transactionType": "CALL",
      "contractName": "SimplePaymentProcessor",
      "contractAddress": "0xd4a9e5ac9f54beccd7c12ca6bd7bd026bbf0058d",
      "function": "acceptPayment(uint216)",
      "arguments": [
        "14326088229287176009333750754391664570113482621237068537606705956"
      ],
      "transaction": {
        "from": "0x0f447989b14a3f0bbf08808020ec1a6de0b8cbc4",
        "to": "0xd4a9e5ac9f54beccd7c12ca6bd7bd026bbf0058d",
        "gas": "0x255f3",
        "value": "0x0",
        "input": "0x56794664000000000022d325871269f498a6b03fd151a9ac4351fb54438ad96b0b4c1324",
        "nonce": "0x495",
        "chainId": "0xaa36a7"
      },
      "additionalContracts": [],
      "isFixedGasLimit": false
    },
    {
      "hash": null,
      "transactionType": "CALL",
      "contractName": "SimplePaymentProcessor",
      "contractAddress": "0xd4a9e5ac9f54beccd7c12ca6bd7bd026bbf0058d",
      "function": "acceptPayment(uint216)",
      "arguments": [
        "36026953608959900370851898484059850666148081497885197060084263936"
      ],
      "transaction": {
        "from": "0x0f447989b14a3f0bbf08808020ec1a6de0b8cbc4",
        "to": "0xd4a9e5ac9f54beccd7c12ca6bd7bd026bbf0058d",
        "gas": "0x234a9",
        "value": "0x0",
        "input": "0x5679466400000000005793a0d674acb0959aba4772e34fea468d0ef8238fe297d04eec00",
        "nonce": "0x496",
        "chainId": "0xaa36a7"
      },
      "additionalContracts": [],
      "isFixedGasLimit": false
    },
    {
      "hash": null,
      "transactionType": "CALL",
      "contractName": "SimplePaymentProcessor",
      "contractAddress": "0xd4a9e5ac9f54beccd7c12ca6bd7bd026bbf0058d",
      "function": "acceptPayment(uint216)",
      "arguments": [
        "23498183567803440382644039040694156378579530376909586829804615856"
      ],
      "transaction": {
        "from": "0x0f447989b14a3f0bbf08808020ec1a6de0b8cbc4",
        "to": "0xd4a9e5ac9f54beccd7c12ca6bd7bd026bbf0058d",
        "gas": "0x27670",
        "value": "0x0",
        "input": "0x567946640000000000391ef49de7bd5b9e945fc67b0d6e3374c606bcae7793288000b8b0",
        "nonce": "0x497",
        "chainId": "0xaa36a7"
      },
      "additionalContracts": [],
      "isFixedGasLimit": false
    },
    {
      "hash": null,
      "transactionType": "CALL",
      "contractName": "SimplePaymentProcessor",
      "contractAddress": "0xd4a9e5ac9f54beccd7c12ca6bd7bd026bbf0058d",
      "function": "acceptPayment(uint216)",
      "arguments": [
        "31798112491345523657907202045395533540148798381665240332330486201"
      ],
      "transaction": {
        "from": "0x0f447989b14a3f0bbf08808020ec1a6de0b8cbc4",
        "to": "0xd4a9e5ac9f54beccd7c12ca6bd7bd026bbf0058d",
        "gas": "0x255f3",
        "value": "0x0",
        "input": "0x5679466400000000004d4c039475ea24c16e2e27d853a0ca28e9246271ca6e8a8d6649b9",
        "nonce": "0x498",
        "chainId": "0xaa36a7"
      },
      "additionalContracts": [],
      "isFixedGasLimit": false
    },
    {
      "hash": null,
      "transactionType": "CALL",
      "contractName": "SimplePaymentProcessor",
      "contractAddress": "0xd4a9e5ac9f54beccd7c12ca6bd7bd026bbf0058d",
      "function": "acceptPayment(uint216)",
      "arguments": [
        "59381019603174855279257830859473643976284985538131849791748206301"
      ],
      "transaction": {
        "from": "0x0f447989b14a3f0bbf08808020ec1a6de0b8cbc4",
        "to": "0xd4a9e5ac9f54beccd7c12ca6bd7bd026bbf0058d",
        "gas": "0x1a211",
        "value": "0x0",
        "input": "0x5679466400000000009058e6335172a0ed46da03c55658e2017a8f56d4a77aef1aa46edd",
        "nonce": "0x499",
        "chainId": "0xaa36a7"
      },
      "additionalContracts": [],
      "isFixedGasLimit": false
    },
    {
      "hash": null,
      "transactionType": "CALL",
      "contractName": "SimplePaymentProcessor",
      "contractAddress": "0xd4a9e5ac9f54beccd7c12ca6bd7bd026bbf0058d",
      "function": "acceptPayment(uint216)",
      "arguments": [
        "35655274610270758760979002372630962352779094430636162418878021662"
      ],
      "transaction": {
        "from": "0x0f447989b14a3f0bbf08808020ec1a6de0b8cbc4",
        "to": "0xd4a9e5ac9f54beccd7c12ca6bd7bd026bbf0058d",
        "gas": "0x255f3",
        "value": "0x0",
        "input": "0x56794664000000000056ac54f50361f2da3870f995b08cb83e60cc5bdbec86bcc865801e",
        "nonce": "0x49a",
        "chainId": "0xaa36a7"
      },
      "additionalContracts": [],
      "isFixedGasLimit": false
    }
  ],
  "receipts": [],
  "libraries": [],
  "pending": [
    "0x3f06e47a18d0c77d548d50c1747b9795802e1637edaeaec168dc1291775d507b",
    "0xb6d20545d20f632d67da3b223a8d05511bbaf6a38b4d5040c7d18822c5025667",
    "0x27b8fdd40da0ae0725f7d11f264b39ab66a02beac2e5c443680c19d517771cfa",
    "0xf5a28445ce359af15255dbb288fce21c023d5b3cd1ef784c49dd4d8e1b767892",
    "0x6f318dece10d30e86b0eea98f41947d166f6689c3ca1f7dd7c508eeec946c460",
    "0xc2e577158aa5637aeff7f39f6ed9b9c3a0f20c34b3942e67f8b7b2a7f1a7cdb8",
    "0x2a5cb75a153dd61f3af73c0de26a1cefc07def6f0adea824f0bfef3198c50732",
    "0x10c302990d8e9c8eacb79cba868271871ed601d5b8785cb489ee4e5001954e15",
    "0x024840e0bb2ffd952faadb7b0046a8f77c8df9573465201028a8189a5a98d64b",
    "0x5dcf078138e1a4d2c6c57bfb3d606d5a782d31647f6b1f81e7184ccae7c94efd",
    "0x3f45f67d96fcf5f67fe0f63a90f2a12b2386598b4abff07ce22fcff8e9dd90c4",
    "0x63c1150b9d4bf970e3576a7759d3b9e718713d369539e270565be874635a9cdd",
    "0x9af9d27d9955bd5f314dfb097d058cfec8d8fcabb80886dc92e1569f699b326b",
    "0x7cba7629ee8c9a66efb39b43c02df9ebc8a9148e063b71f2ec3c98ef87570fea",
    "0xb8c726d64a50a3f0d275d329a1a20689b3c4ff88e080ec7245836e92e7966132",
    "0xa982d9d127a20ed0920992f9a2ef836e8c1be6e2b733fbdb1b031b78d266e2da",
    "0xab71f78dadcd89923e0697e5a579c9e14b845db31aaa67089f0286097ac7d52f",
    "0x57e7f99910ab47b7536ea34259cf91c83e6d5a4d1a93a815abfc00cb2bcd81f7",
    "0x0dbe0713d46b61e1d9e876275df29f61850145f5141b425e1c77c120feb867d5",
    "0x4f3f02e292419a62e62d30c0426d5a941a3b22ceba0326eb08cac2f285c7e03d",
    "0x11938c704ce3555b4b636474f80b6a71fdf452ed8f57173c777700a6b68900db",
    "0x02ccab4c32be1e95e1d1494610687268d30dec31aea768de2551fb37cfa9ccbb",
    "0x28930a8f07ee1afa4f71134d054408182fe75a8de5b53e3d8c4cc654a6c45396",
    "0x943b95850dfe387af286c18a974cc5230ae186dddb5ac782243a20f3c40fb382",
    "0x4cc4417f8b9b24aee890242c066ccdb29ffe927e4416c696e598ccd3faa5f525",
    "0x81b913d233714ad70f01f2841406858ed9188730b6538de60b7653fea75fab3b",
    "0xb1f15d3b76ddf9341bc155a834049d20682d9a4a7321b3929008aa93070e1180",
    "0xf76c1efd7e5c1115891ecaec595190948edffd9637f56b0b84a2d3545643a5b1",
    "0x51af6d5ff0f9221655f3b13075b9cafdd65449ef373a8c4623dac66e8d59a8eb",
    "0x60a9614802a8999ec414614c81a60861a65c01e16d4206f21e61efd8fd4d8146",
    "0x2a0c6cef8fdca9fcfd05ea6658fae208addd64402a0830fe7eb1d8c31c4a0bcd",
    "0x80a8a040cd811aed1750a83ffb47960fa8c4fab467bda5d1584cc8a1e48e8813",
    "0x778de5b3069f45ab7d723f2dcc98682ec0620acc3da0d95cc3f419ec48873f6c",
    "0x30ff1c43b1594a84279fb6afc43400868daf0b0b1e5e657d101d9f9bfb59de64",
    "0x21298aadd81731ed4c5845e03371dd40bf59da1cb9f08eb3f06eeb55e452b40b",
    "0x705dbf21d640c1a02477f622cb60fe028a7eb693e83d193a6ec520023b85be88",
    "0x957f5ce89acc490b519c8ac00887bfe9e7008958a145d0a5a4f3284dc6d50810",
    "0xbc1c53a04ed8e65c34f08cbdcbf313b6f330a488b7f0e48105e1da847764d8a1",
    "0xaa79d1fe5906e4f1a129780a94d8ac73fe4cf1f2f9fa51ed8c9bba5e5767fba0",
    "0x46bba4d9429a8b98a92c77406ccf830893d79a7a669fc21a4e45d8de177dddd2",
    "0xe31ba5c651ec0ad4ee2476ffb279743d991b617314e874e4ce3197decc09d08d",
    "0xea56faea36ab64338f3aa72325300853f443d1487f685c2d0d5687e345f505ac",
    "0xed6ee6062e3b536774bd743e2f9881e5e833e9878ec7bb3fb3be7938a3722dc1",
    "0xc300f8ba91eb0105c5c3a10213af00841aff6fd079bdc49373629c7505e512d9",
    "0xc1a6b6b96e97de724c5bf33051f0f66fbad1c2bb0ea705a79aff68207c0a4cd0",
    "0xab597aa69a9247ca46d9690b3f38850e2622d35b48455017ef443b52d15fd348",
    "0x861b8a49add7f8f565713b32c495d7a02f413ec72340ddd9b4223ce272efbf2a",
    "0x99110478181bb4171ecc572bd3d23a5686131cffd142a1a9800f4f0ff22752dd",
    "0x17f64eeb0d88444aa8c6bb754298d7ceb90d9941b97c4f34b52ff60d0cb2c176",
    "0xcca13cf541bc7c6744532495c9bf62ed5383138430523d3583bc67175e14a9f9",
    "0x6fa901f6402894ad917f15df7127ed327779125ccb0ffc3e041c68c76e4a07e5",
    "0xc0a346bb45ba5b9399edf8ef69735e4b9c2b2b3ad24a9e39273dd6d32d63e8a8",
    "0xcd7fb05b12f18a579528b0eadfa916cad85f3a51cc5ade936e3e0342cd334492",
    "0x032201cb230087ef24b286f9776a7e488f8954815bf89f40db966b461caeb143",
    "0x939a1a5c47c7ce1ecd648fbdf58d5c65e5aa137564949c9522cea33373afd6ef",
    "0x2fbfda77a1c8682d84899bb9d5a4fc70888db399fe316c81648e9c160c655cc7",
    "0xe562b68f06844c64ed315b111cbe0ee93c915fcc81355138c1557df06f3a42ed",
    "0xb6f7b1c2cd622abc3fd9499448a3b62be0435f4013a733a5f331adba58346b34",
    "0x402ba4e0935067004acd6f88f3da4751a83e1506246d738d7424d7b395ca9cd2",
    "0x82ad1f4a29902af3cffe0c972bff0bb3188d81582ef6139a6466c61c610fd93f",
    "0xbab35f1290347bbcba31c200381bae08624529b10403e488d6004e0e1de3dc65"
  ],
  "returns": {},
  "timestamp": 1769951738838,
  "chain": 11155111,
  "commit": "944419b"
}