{
  "transactions": [
    {
      "hash": "0x85b1381670e87428c32e6cd3d036b31ff7407ff995008cb4d792bab57d0d2975",
      "transactionType": "CALL",
      "contractName": null,
      "contractAddress": "0xf041a2cd5f87fc7d02c3a42b02dc479582538d26",
      "function": "paySingleInvoice(bytes32,address)",
      "arguments": [
        "0x77ae7d899f320908496f595d20cd10ff805a517ff5359bbe78271d12ec96cc06",
        "0x38844FD5258943F0Af0db706CeC75a9233140087"
      ],
      "transaction": {
        "from": "0x0f447989b14a3f0bbf08808020ec1a6de0b8cbc4",
        "to": "0xf041a2cd5f87fc7d02c3a42b02dc479582538d26",
        "gas": "0x862dd",
        "value": "0x0",
        "input": "0x91a61baf77ae7d899f320908496f595d20cd10ff805a517ff5359bbe78271d12ec96cc0600000000000000000000000038844fd5258943f0af0db706cec75a9233140087",
        "nonce": "0x155",
        "chainId": "0x13882"
      },
      "additionalContracts": [
        {
          "transactionType": "CREATE2",
          "address": "0x981fa721301f1c47aceb135c638e3dc6548173d2",
          "initCode": "0x67363d3d37363d34f03d5260086018f3"
        },
        {
          "transactionType": "CREATE",
          "address": "0x32c09a76d7ad12159f71b4948aea893076a2ab10",
          "initCode": "0x6101006040526040516103c43803806103c483398101604081905261002391610091565b60e08490526001600160a01b0380841660a052828116608052811660c052604051349085907fb27db33c2873b1f9761e7ce1dc2691d3974028bf6f815944c848e43a95e6c5d5905f90a3505050506100db565b80516001600160a01b038116811461008c575f5ffd5b919050565b5f5f5f5f608085870312156100a4575f5ffd5b845193506100b460208601610076565b92506100c260408601610076565b91506100d060608601610076565b905092959194509250565b60805160a05160c05160e0516102b26101125f395f60c901525f8181610113015261018201525f605e01525f60a201526102b25ff3fe608060405234801561000f575f5ffd5b5060043610610055575f3560e01c806308551a53146100595780637150d8ae1461009d578063895ae279146100c4578063d9caed12146100f9578063f1c6bdf81461010e575b5f5ffd5b6100807f000000000000000000000000000000000000000000000000000000000000000081565b6040516001600160a01b0390911681526020015b60405180910390f35b6100807f000000000000000000000000000000000000000000000000000000000000000081565b6100eb7f000000000000000000000000000000000000000000000000000000000000000081565b604051908152602001610094565b61010c610107366004610243565b610135565b005b6100807f000000000000000000000000000000000000000000000000000000000000000081565b61013d610177565b6001600160a01b0383166101635761015e6001600160a01b038316826101c1565b505050565b61015e6001600160a01b03841683836101de565b336001600160a01b037f000000000000000000000000000000000000000000000000000000000000000016146101bf576040516282b42960e81b815260040160405180910390fd5b565b5f385f3884865af16101da5763b12d13eb5f526004601cfd5b5050565b816014528060345263a9059cbb60601b5f5260205f604460105f875af18060015f51141661021e57803d853b15171061021e576390b8ec185f526004601cfd5b505f603452505050565b80356001600160a01b038116811461023e575f5ffd5b919050565b5f5f5f60608486031215610255575f5ffd5b61025e84610228565b925061026c60208501610228565b915060408401359050925092509256fea26469706673582212206028bf983a7e405918e904be4d99ae3f68aba9d0a3042e8d63392e190142ffba64736f6c634300081c003377ae7d899f320908496f595d20cd10ff805a517ff5359bbe78271d12ec96cc0600000000000000000000000060d7dd3b4248d53abba8da999b22023656a2e4b30000000000000000000000000f447989b14a3f0bbf08808020ec1a6de0b8cbc4000000000000000000000000f041a2cd5f87fc7d02c3a42b02dc479582538d26"
        }
      ],
      "isFixedGasLimit": false
    }
  ],
  "receipts": [
    {
      "status": "0x1",
      "cumulativeGasUsed": "0x67127",
      "logs": [
        {
          "address": "0x32c09a76d7ad12159f71b4948aea893076a2ab10",
          "topics": [
            "0xb27db33c2873b1f9761e7ce1dc2691d3974028bf6f815944c848e43a95e6c5d5",
            "0x77ae7d899f320908496f595d20cd10ff805a517ff5359bbe78271d12ec96cc06",
            "0x0000000000000000000000000000000000000000000000000000000000000000"
          ],
          "data": "0x",
          "blockHash": "0x92db6269675b71e359f12516741cd0fa1f2116bfc1cbf09309b39fd789ead3a5",
          "blockNumber": "0x15fbec7",
          "transactionHash": "0x85b1381670e87428c32e6cd3d036b31ff7407ff995008cb4d792bab57d0d2975",
          "transactionIndex": "0x1",
          "logIndex": "0x2",
          "removed": false
        },
        {
          "address": "0xf041a2cd5f87fc7d02c3a42b02dc479582538d26",
          "topics": [
            "0x081d5782a95858ba84888c64fd6c1379fe10f4d1f7e42def7585666088eb3240",
            "0x77ae7d899f320908496f595d20cd10ff805a517ff5359bbe78271d12ec96cc06",
            "0x00000000000000000000000032c09a76d7ad12159f71b4948aea893076a2ab10"
          ],
          "data": "0x",
          "blockHash": "0x92db6269675b71e359f12516741cd0fa1f2116bfc1cbf09309b39fd789ead3a5",
          "blockNumber": "0x15fbec7",
          "transactionHash": "0x85b1381670e87428c32e6cd3d036b31ff7407ff995008cb4d792bab57d0d2975",
          "transactionIndex": "0x1",
          "logIndex": "0x3",
          "removed": false
        },
        {
          "address": "0x38844fd5258943f0af0db706cec75a9233140087",
          "topics": [
            "0xddf252ad1be2c89b69c2b068fc378daa952ba7f163c4a11628f55a4df523b3ef",
            "0x0000000000000000000000000f447989b14a3f0bbf08808020ec1a6de0b8cbc4",
            "0x00000000000000000000000032c09a76d7ad12159f71b4948aea893076a2ab10"
          ],
          "data": "0x00000000000000000000000000000000000000000000000000000000052c7680",
          "blockHash": "0x92db6269675b71e359f12516741cd0fa1f2116bfc1cbf09309b39fd789ead3a5",
          "blockNumber": "0x15fbec7",
          "transactionHash": "0x85b1381670e87428c32e6cd3d036b31ff7407ff995008cb4d792bab57d0d2975",
          "transactionIndex": "0x1",
          "logIndex": "0x4",
          "removed": false
        },
        {
          "address": "0xf041a2cd5f87fc7d02c3a42b02dc479582538d26",
          "topics": [
            "0x787fcac3b50ab9534e1ef2e289dfa2a75eb9481de9f9061d4773232074751582",
            "0x77ae7d899f320908496f595d20cd10ff805a517ff5359bbe78271d12ec96cc06"
          ],
          "data": "0x00000000000000000000000038844fd5258943f0af0db706cec75a923314008700000000000000000000000032c09a76d7ad12159f71b4948aea893076a2ab1000000000000000000000000000000000000000000000000000000000052c7680",
          "blockHash": "0x92db6269675b71e359f12516741cd0fa1f2116bfc1cbf09309b39fd789ead3a5",
          "blockNumber": "0x15fbec7",
          "transactionHash": "0x85b1381670e87428c32e6cd3d036b31ff7407ff995008cb4d792bab57d0d2975",
          "transactionIndex": "0x1",
          "logIndex": "0x5",
          "removed": false
        },
        {
          "address": "0x0000000000000000000000000000000000001010",
          "topics": [
            "0x4dfe1bbbcf077ddc3e01291eea2d5c70c2b422b415d95645b9adcfd678cb1d63",
            "0x0000000000000000000000000000000000000000000000000000000000001010",
            "0x0000000000000000000000000f447989b14a3f0bbf08808020ec1a6de0b8cbc4",
            "0x00000000000000000000000034caf8c0d58afb0875ba58bbc846979d351dcb2e"
          ],
          "data": "0x00000000000000000000000000000000000000000000000000798f3a46d137e800000000000000000000000000000000000000000000000024cba1e80b0e5fac00000000000000000000000000000000000000000000007c2dab09478c8456d4000000000000000000000000000000000000000000000000245212adc43d27c400000000000000000000000000000000000000000000007c2e249881d3558ebc",
          "blockHash": "0x92db6269675b71e359f12516741cd0fa1f2116bfc1cbf09309b39fd789ead3a5",
          "blockNumber": "0x15fbec7",
          "transactionHash": "0x85b1381670e87428c32e6cd3d036b31ff7407ff995008cb4d792bab57d0d2975",
          "transactionIndex": "0x1",
          "logIndex": "0x6",
          "removed": false
        }
      ],
      "logsBloom": "0x00000000100050000000000000000000000000000000000000000000000080000000000000000000000000002000000004048000000000000000000000000100000000000800000000002008002000800000000002000000000100000000000000000000028000000000500000000800000000000000000080000010000000200000000000008000000000000000000000000020000000000000000000000000200000000040000000000000001400000000040000000000000000000000004000000002000000000801000000000000040002000000000000900000000031000000000000000000000000000000000008000008000000000000000000100000",
      "type": "0x2",
      "transactionHash": "0x85b1381670e87428c32e6cd3d036b31ff7407ff995008cb4d792bab57d0d2975",
      "transactionIndex": "0x1",
      "blockHash": "0x92db6269675b71e359f12516741cd0fa1f2116bfc1cbf09309b39fd789ead3a5",
      "blockNumber": "0x15fbec7",
      "gasUsed": "0x5bbf1",
      "effectiveGasPrice": "0x153300be97",
      "from": "0x0f447989b14a3f0bbf08808020ec1a6de0b8cbc4",
      "to": "0xf041a2cd5f87fc7d02c3a42b02dc479582538d26",
      "contractAddress": null
    }
  ],
  "libraries": [],
  "pending": [],
  "returns": {},
  "timestamp": 1750417325,
  "chain": 80002,
  "commit": "6174179"
}