{
  "transactions": [
    {
      "hash": "0x43e360285d704d95de6492aa391ebd8138ee7be6c28a5e52d765cda8f51430f6",
      "transactionType": "CALL",
      "contractName": null,
      "contractAddress": "0x91cf5a72635156e7a94f0ed9b300b54067d2d2c2",
      "function": "execute(address,bytes)",
      "arguments": [
        "0xdD4fB097651cd0d339e4E177CE6B9CF1dD4680b8",
        "0xd777cc6d00000000000000000000000079d9a743b75b8a018d38c4340a53f8a4b44cc61b"
      ],
      "transaction": {
        "from": "0x0f447989b14a3f0bbf08808020ec1a6de0b8cbc4",
        "to": "0x91cf5a72635156e7a94f0ed9b300b54067d2d2c2",
        "gas": "0x111eb",
        "value": "0x0",
        "input": "0x1cff79cd000000000000000000000000dd4fb097651cd0d339e4e177ce6b9cf1dd4680b800000000000000000000000000000000000000000000000000000000000000400000000000000000000000000000000000000000000000000000000000000024d777cc6d00000000000000000000000079d9a743b75b8a018d38c4340a53f8a4b44cc61b00000000000000000000000000000000000000000000000000000000",
        "nonce": "0x143",
        "chainId": "0xaa36a7"
      },
      "additionalContracts": [],
      "isFixedGasLimit": false
    },
    {
      "hash": "0xe6bfaa17c49c5e6e5e2b7fc9e91b73d2205db91f4e0776eae9848dbf6d36f33c",
      "transactionType": "CALL",
      "contractName": null,
      "contractAddress": "0x91cf5a72635156e7a94f0ed9b300b54067d2d2c2",
      "function": "execute(address,bytes)",
      "arguments": [
        "0xE1F99AB577dd2C97f98b7f77962b0A259cFfadcc",
        "0xd777cc6d0000000000000000000000003a6a8e8d6266c272a96b90b8a186f10022d1d601"
      ],
      "transaction": {
        "from": "0x0f447989b14a3f0bbf08808020ec1a6de0b8cbc4",
        "to": "0x91cf5a72635156e7a94f0ed9b300b54067d2d2c2",
        "gas": "0x11d6d",
        "value": "0x0",
        "input": "0x1cff79cd000000000000000000000000e1f99ab577dd2c97f98b7f77962b0a259cffadcc00000000000000000000000000000000000000000000000000000000000000400000000000000000000000000000000000000000000000000000000000000024d777cc6d0000000000000000000000003a6a8e8d6266c272a96b90b8a186f10022d1d60100000000000000000000000000000000000000000000000000000000",
        "nonce": "0x144",
        "chainId": "0xaa36a7"
      },
      "additionalContracts": [],
      "isFixedGasLimit": false
    }
  ],
  "receipts": [
    {
      "status": "0x1",
      "cumulativeGasUsed": "0xacb5ec",
      "logs": [],
      "logsBloom": "0x00000000000000000000000000000000000000000000000000000000000000000000000000000000000000000000000000000000000000000000000000000000000000000000000000000000000000000000000000000000000000000000000000000000000000000000000000000000000000000000000000000000000000000000000000000000000000000000000000000000000000000000000000000000000000000000000000000000000000000000000000000000000000000000000000000000000000000000000000000000000000000000000000000000000000000000000000000000000000000000000000000000000000000000000000000000",
      "type": "0x2",
      "transactionHash": "0x43e360285d704d95de6492aa391ebd8138ee7be6c28a5e52d765cda8f51430f6",
      "transactionIndex": "0x3d",
      "blockHash": "0xe2f8b08cc7e1a28a46f432a90a84560e68e1a251a41e737555df313fcc4332ab",
      "blockNumber": "0x92d358",
      "gasUsed": "0xc650",
      "effectiveGasPrice": "0x10980a",
      "from": "0x0f447989b14a3f0bbf08808020ec1a6de0b8cbc4",
      "to": "0x91cf5a72635156e7a94f0ed9b300b54067d2d2c2",
      "contractAddress": null
    },
    {
      "status": "0x1",
      "cumulativeGasUsed": "0xad8491",
      "logs": [],
      "logsBloom": "0x00000000000000000000000000000000000000000000000000000000000000000000000000000000000000000000000000000000000000000000000000000000000000000000000000000000000000000000000000000000000000000000000000000000000000000000000000000000000000000000000000000000000000000000000000000000000000000000000000000000000000000000000000000000000000000000000000000000000000000000000000000000000000000000000000000000000000000000000000000000000000000000000000000000000000000000000000000000000000000000000000000000000000000000000000000000",
      "type": "0x2",
      "transactionHash": "0xe6bfaa17c49c5e6e5e2b7fc9e91b73d2205db91f4e0776eae9848dbf6d36f33c",
      "transactionIndex": "0x3e",
      "blockHash": "0xe2f8b08cc7e1a28a46f432a90a84560e68e1a251a41e737555df313fcc4332ab",
      "blockNumber": "0x92d358",
      "gasUsed": "0xcea5",
      "effectiveGasPrice": "0x10980a",
      "from": "0x0f447989b14a3f0bbf08808020ec1a6de0b8cbc4",
      "to": "0x91cf5a72635156e7a94f0ed9b300b54067d2d2c2",
      "contractAddress": null
    }
  ],
  "libraries": [],
  "pending": [],
  "returns": {},
  "timestamp": 1763049708940,
  "chain": 11155111,
  "commit": "4252ff6"
}